:100000000C94B2000C94DA000C94DA000C942C17C7
:100010000C9456170C9480170C94DA000C94DA00A8
:100020000C94DA000C94DA000C94DA000C94DA00E8
:100030000C94DA000C94DA000C94DA000C94DA00D8
:100040000C94C81A0C94DA000C94BB1C0C94091D77
:100050000C94DA000C94DA000C94DA000C94DA00B8
:100060000C94DA000C94DA0000C2010001001100C7
:1000700011000C0000E100000A002500250021000D
:10008000009600001900390039003600127A00008D
:100090001F004600460044008070000022004D0012
:1000A0004D004A00004B00003600750075007200DC
:1000B000403800004A009C009C0099008025000008
:1000C0007200EC00EC00E900C0120000E900DA0167
:1000D000DA01D70160090000D701B603B603B30304
:1000E000B0040000B3036E076E076B0758020000F0
:1000F0006E07DC0EDC0ED80E2C010000DC0EC11DDC
:10010000C11DBE1D00000000240027002A000000C1
:100110000000250028002B0000000000230026001E
:10012000290004040404040404040202020202027A
:1001300003030303030301020408102040800102AB
:10014000040810200102040810200000000700022B
:1001500001000003040600000000000000004F0240
:10016000751E480211241FBECFEFD8E0DEBFCDBF01
:1001700012E0A0E0B1E0E2EBFDE402C005900D92D8
:10018000A635B107D9F714E0A6E5B2E001C01D928B
:10019000AC36B107E1F711E0C2E6D1E004C0229726
:1001A000FE010E949126CE35D107C9F70E94CB1ED1
:1001B0000C94CC260C940000A0E0B0E0E2EEF0E05D
:1001C0000C949D26EC01A880B980CA80DB80A11424
:1001D000B104C104D10441F484E2A82E89EDB82E03
:1001E0008BE5C82E87E0D82EC601B5012DE133EF8F
:1001F00041E050E00E94602627EA31E440E050E010
:100200000E940C267B018C01C601B5012DE133EF64
:1002100041E050E00E946026CA01B9012CEE34EFA3
:100220004FEF5FEF0E940C266E0D7F1D801F911F08
:1002300097FF04C061507040804090486883798384
:100240008A839B839B01AC015F77B901CA01CDB75B
:10025000DEB7EAE00C94B9260E94DC00089587E13D
:1002600092E00E94DC0008956093170270931802D8
:100270008093190290931A020895FC018827992708
:10028000E89421912032E9F3293010F02E30C8F3A0
:100290002B3241F02D3239F4689404C00E948C0155
:1002A000820F911D219120532A30C0F31EF49095A6
:1002B00081959F4F0895FB01DC0102C001900D92D2
:1002C00041505040D8F70895FB01DC0101900D9298
:1002D0000020E1F70895FB019F01E8944230C4F04B
:1002E0004532B4F44A3029F497FB1EF49095819579
:1002F0009F4F642F77270E947B26805D8A330CF006
:10030000895D8193CB010097A1F716F45DE25193CB
:100310001082C9010C94AA017AE0979F902D879FC3
:10032000802D910D11240895FB019F01423074F03E
:10033000453264F4642F77270E947B26805D8A33E0
:100340000CF0895D8193CB010097A1F71082C90160
:100350000C94AA01DC01FC01672F71917723E1F76E
:10036000329704C07C916D9370836291AE17BF0782
:10037000C8F308958130910509F060C06F5F7F4F29
:1003800009F085C08AE592E060E071E00E94A0215A
:1003900081E692E065E071E00E94A02188E692E0AB
:1003A00067E044E020E00E94151A80911B029091C2
:1003B0001C029093A5028093A40281EB92E06AE074
:1003C00071E00E94A02180EC92E06FE071E00E9459
:1003D000A02188EC92E064E171E00E94A0218FEC02
:1003E00092E069E171E00E94A02186ED92E06EE169
:1003F00071E00E94A0218DED92E063E271E00E9425
:10040000A0218091290290912A0290933D0380932C
:100410003C03809127029091280290933F038093A0
:100420003E03809125029091260290934103809390
:10043000400390934303809342030895892B39F539
:100440006F5F7F4F21F58DED92E00E94632286ED74
:1004500092E00E9463228FEC92E00E94632288EC7B
:1004600092E00E94632280EC92E00E94632281EB82
:1004700092E00E94632288E692E00E949C1881E646
:1004800092E00E9463228AE592E00E94632208952E
:1004900080E090E06FEF7FEF0E94BA01089581E065
:1004A00090E06FEF7FEF0E94BA0108950F931F93C2
:1004B0001092AA021092A9021092AC021092AB0202
:1004C0001092AE021092AD021092B0021092AF02E2
:1004D0008EE00E94B21B9093AA028093A902009121
:1004E000AB021091AC028FE00E94B21B080F191FE3
:1004F0001093AC020093AB020091AD021091AE02DA
:1005000080E10E94B21B080F191F1093AE020093E6
:10051000AD020091AF021091B00281E10E94B21BC6
:10052000080F191F1093B0020093AF021F910F9193
:1005300008950F931F93CF93DF938C01EB0180916C
:100540003B03882371F141155105D9F486E494E009
:100550000E94041F86E494E0BE010E940D2086E400
:1005600094E068E271E00E94F71F86E494E0B8012D
:100570004AE050E00E94E41F86E494E00E94041FD9
:1005800010C04130510569F486E494E0B8014AE0B6
:1005900050E00E94E41F86E494E06AE271E00E9469
:1005A000F71FDF91CF911F910F9108952F923F92E6
:1005B0004F925F926F927F928F929F92AF92BF9273
:1005C000CF92DF92EF92FF920F931F93DF93CF931F
:1005D000CDB7DEB72E970FB6F894DEBF0FBECDBFF6
:1005E0002DB63EB68090230290902402C401880F5D
:1005F000991F2DB73EB7281B390B0FB6F8943EBF95
:100600000FBE2DBFADB6BEB60894A11CB11C409064
:10061000440350904503350102E413E06501E0E036
:10062000F0E07C01E00EF11E2BC0D80112968D91F6
:100630009C911397309731F4D7012D913C91280F5D
:10064000391F0CC0D8012D913C91280F391FEB3078
:10065000F10521F4C901840D951D07C0D801149638
:100660008D919C911597820F931F63E070E00E941B
:100670002B26D6016D937D936D0131960E5F1F4F32
:10068000E815F90594F260912B0291E0C92ED12C66
:1006900040E050E016C0EA0DFB1DD3012D913C91C6
:1006A000808191812817390734F4662319F04115A8
:1006B000510509F06A014F5F5F4FE2E0F0E06E0E16
:1006C0007F1EF601EE0FFF1F4815590524F3AE0EED
:1006D000BF1ED5010D911C917E010894E11CF11CF7
:1006E000C7016FE271E00E94A021C801B70140E09C
:1006F00050E00E949902C7010E9463228E01085FA8
:100700001F4FC8016DE371E00E94A021C601B8012E
:1007100040E050E00E949902C8010E946322C60195
:100720000FB6F8943EBE0FBE2DBE2E960FB6F894AF
:10073000DEBF0FBECDBFCF91DF911F910F91FF9014
:10074000EF90DF90CF90BF90AF909F908F907F9071
:100750006F905F904F903F902F9008956F927F928F
:100760008F929F92AF92BF92CF92DF92EF92FF92C1
:100770000F931F93DF93CF93CDB7DEB727970FB6B5
:10078000F894DEBF0FBECDBF6A017B01380149017D
:10079000AA2797FDA095BA2FBC01CD010E941D2567
:1007A000A70196010E94A9250E94EA24882777FDC7
:1007B0008095982F0E941D257B018C0160E070E0E0
:1007C00080E89FE3A40193010E94852420E030E0AB
:1007D00040E85FE30E948624A80197010E94A925B2
:1007E0000E94EA240E9454205B016C01C401B30101
:1007F000A80197010E94A9257B018C01C601B501C2
:100800000E941D259B01AC01C801B7010E948624EE
:100810000E94EA247B018C016E010894C11CD11C4A
:10082000C6016DE471E00E94A021C701B60140E05D
:1008300050E00E949902C6010E946322C7012796D8
:100840000FB6F894DEBF0FBECDBFCF91DF911F91E1
:100850000F91FF90EF90DF90CF90BF90AF909F905F
:100860008F907F906F9008956F927F928F929F925A
:10087000AF92BF92CF92DF92EF92FF920F931F93AE
:10088000DF93CF93CDB7DEB727970FB6F894DEBFCF
:100890000FBECDBF3A014B01AA2797FDA095BA2FF5
:1008A000BC01CD010E941D257B018C0160E070E040
:1008B00080E89FE3A40193010E94852420E030E0BA
:1008C00040E85FE30E948624A80197010E94A925C1
:1008D0000E94EA240E9454205B016C01C401B30110
:1008E000A80197010E94A9257B018C01C601B501D1
:1008F0000E941D259B01AC01C801B7010E948624FE
:100900000E94EA247B018C016E010894C11CD11C59
:10091000C6016BE571E00E94A021C701B60140E06D
:1009200050E00E949902C6010E946322C7012796E7
:100930000FB6F894DEBF0FBECDBFCF91DF911F91F0
:100940000F91FF90EF90DF90CF90BF90AF909F906E
:100950008F907F906F900895EF92FF920F931F9367
:10096000DF93CF9300D000D0CDB7DEB78E010F5FFD
:100970001F4F35E0E32EF12CEC0EFD1E86E494E0D3
:100980000E94FC1D282F992787FD9095C0970A97F4
:1009900010F02D3211F4F80120830F5F1F4F0E1558
:1009A0001F0561F7CE0101960E943D010F900F9047
:1009B0000F900F90CF91DF911F910F91FF90EF90CB
:1009C00008950F931F93CF93DF9386E494E00E94E2
:1009D000FC1D8093E40284EE92E00E943D0190931E
:1009E00059028093580205EE12E0C0E0D0E013C037
:1009F0000E94AC04F801819391938F01109222031D
:100A000010922103109223031092240310922503C5
:100A10001092260321968091580290915902C8178E
:100A2000D90734F3DF91CF911F910F910895EF9281
:100A3000FF920F931F93DF93CF93CDB7DEB7279726
:100A40000FB6F894DEBF0FBECDBF7C018E010F5FE5
:100A50001F4FC80166E671E00E94A021C80161E64F
:100A600072E00E944921C80168E271E00E943921C8
:100A7000C801B7010E94492186E494E0B8010E94B0
:100A80004020C8010E94632227960FB6F894DEBF6B
:100A90000FBECDBFCF91DF911F910F91FF90EF90CF
:100AA0000895DF92EF92FF920F931F9384EB0E94C1
:100AB0006F1A87E00E94A21A85EB0E94971A0E9483
:100AC000B41AD82E0E94B41AE82E0E94BE1A0E94B0
:100AD0009A1AFF248FE7E822FF24FE2CEE24ED0C67
:100AE000F11C0027F7FC0095102FC801B7010E94E8
:100AF0001D252AE037ED43EA5CE30E94A9252AE0A0
:100B000037ED43E25CE30E94852423E333E948E8C0
:100B100053E40E94852426E636E646EE5FE30E9413
:100B2000A92520E030E040E052E40E9486241F9195
:100B30000F91FF90EF90DF900895EF92FF920F9347
:100B40001F9380E090E0A0E0B0E08093B802909323
:100B5000B902A093BA02B093BB028093BC029093F7
:100B6000BD02A093BE02B093BF028CE061E00E9480
:100B7000131C88E060E00E94131CE090B802F09023
:100B8000B9020091BA021091BB020E9451059B016B
:100B9000AC01C801B7010E9486246093B80270932B
:100BA000B9028093BA029093BB028CE060E00E948D
:100BB000131C88E060E00E94131CE090BC02F090DF
:100BC000BD020091BE021091BF020E9451059B011F
:100BD000AC01C801B7010E9486246093BC027093E7
:100BE000BD028093BE029093BF021F910F91FF90B0
:100BF000EF9008950E94431A80E388B986E494E058
:100C000067E671E00E94FA1F8CE061E00E94D41B4D
:100C100088E061E00E94D41B88E061E00E94131C20
:100C20008CE061E00E94131C089588E692E00E9427
:100C3000C6180895EF92FF920F931F930E94101B06
:100C40007B018C010EC00E94101B6E197F09800B66
:100C5000910B6A3171058105910518F020E030E0B3
:100C600006C00E941506892B71F321E030E0C9010E
:100C70001F910F91FF90EF90089588E692E00E94F7
:100C8000A51808951F93CF93DF930E941A06892B0E
:100C900019F4C0E0D0E019C00E943D06182F0E9450
:100CA0001506892B49F00E943D06312F20E0C82F00
:100CB000D0E0C22BD32B05C0C12FD0E002C00E94D0
:100CC0003D060E941506892BD1F7CE01DF91CF9109
:100CD0001F910895682F88E692E00E94E018089519
:100CE000CF93DF93EC018091A802882321F08FEF4E
:100CF000CF3FD80779F488E80E946A068C2F0E94BB
:100D00006A06CF5FDF4F21F081E08093A80202C026
:100D10001092A802DF91CF91089581E08093C702DD
:100D200081E090E00E94700608951F93182F8EE8CE
:100D30000E946A06812F0E946A060E9442061F9145
:100D40000895EF92FF920F931F937C010E94101B56
:100D500020912D0330912E0340912F0350913003A9
:100D6000621B730B840B950B0027F7FC0095102F6B
:100D7000E616F70608071907B8F40E94101B6093DF
:100D80002D0370932E0380932F039093300383E100
:100D90000E9495062091390330913A03280F391F9C
:100DA00030933A03209339031F910F91FF90EF90F6
:100DB000089585E10E9495068093890287E10E944B
:100DC000950690938D0280938C028AE10E9495068D
:100DD000909393028093920282E20E949506809300
:100DE0009E0283E20E94950680939F0208958DE003
:100DF0000E9495068093860281E10E949506809369
:100E0000870282E10E9495068093880286E10E9413
:100E1000950690938B0280938A0288E10E94950642
:100E200090938F0280938E0289E10E9495069093A1
:100E3000910280939002089587E00E949506809326
:100E4000840288E00E949506809385028BE10E94CF
:100E5000950690939502809394028CE10E949506EA
:100E600090939702809396028DE10E94950690934D
:100E70009902809398028EE10E94950690939B02BE
:100E800080939A028FE10E94950690939D02809331
:100E90009C0208950F931F93CF93DF938C0188E9F1
:100EA0000E946A068DE00E946A0689E80E946A062E
:100EB0008091A4029091A50217FF05C0CC27DD27E1
:100EC000C81BD90B01C0EC018D2F992787FD9A957E
:100ED0000E946A068C2F0E946A0680E00E946A06C1
:100EE00080E00E946A068DE90E946A06812F992798
:100EF00087FD9A950E946A06802F0E946A0689E8FB
:100F00000E946A0680E00E946A0680E00E946A06EB
:100F100080E00E946A0680E00E946A0664E670E053
:100F200080E090E00E941E1B89E90E946A06809181
:100F3000A6029091A702800F911F9093A702809321
:100F4000A60221E0893692071CF08856914004C021
:100F500097FF06C088599E4F9093A7028093A602E0
:100F6000DF91CF911F910F910895CF92DF92EF9271
:100F7000FF920F931F93DF93CF93CDB7DEB72797E1
:100F80000FB6F894DEBF0FBECDBF0E94D6026C0133
:100F9000E0912302F0912402CF0162E070E00E9410
:100FA0002B269B012C0D3D1D2E173F0714F02E1BE9
:100FB0003F0B88E691E0BF010E942B26269F70011F
:100FC000279FF00C369FF00C11242DEF3FEFE20E1F
:100FD000F31E35EBE316F10434F088E691E0AC0142
:100FE0004E195F097A018E010F5F1F4FC80160E83B
:100FF00071E00E94A021C701B80140E050E00E94CA
:101000009902C8010E946322C7010E944A07C701D2
:1010100068E671E00E942B26CB0128EE33E0609158
:101020001B0270911C02AC01429FC001439F900DB6
:10103000529F900D11240E942B26CB01829FB0015C
:10104000839F700D929F700D1124882777FD8095E6
:10105000982F0E941E1BC60127960FB6F894DEBF7C
:101060000FBECDBFCF91DF911F910F91FF90EF90F9
:10107000DF90CF9008957093A5026093A4020E9420
:101080004A0780911B0290911C029093A5028093C5
:10109000A40208952F923F924F925F926F927F9297
:1010A0008F929F92AF92BF92CF92DF92EF92FF9278
:1010B0000F931F93DF93CF93CDB7DEB727970FB66C
:1010C000F894DEBF0FBECDBF6C01809023029090DC
:1010D000240288E691E0B4010E942B26CC0CDD1C92
:1010E00024E433E0C20ED31EAA24BB243E0108949C
:1010F000611C711CBDEF4B2EBFEF5B2E460E571EC1
:10110000A8EE2A2EA3E03A2E5EC0EE24FF2400E0D3
:1011100010E064E170E080E090E00E941E1B80E13E
:101120000E94B21B33E0893E930718F00150104033
:1011300002C0E80EF91E0F5F1F4F0E3111054CF370
:1011400064E170E080E090E00E941E1BC7016EE148
:1011500070E00E942B26162F072FF6016083718303
:10116000C30166E671E00E94A021812F902FB30198
:1011700041E050E00E949902C3010E946322C20133
:1011800064E670E00E943B0888EE93E0B4010E94A0
:101190002B26CB0164E670E00E942B269B01229D4A
:1011A000B001239D700D329D700D1124882777FDAD
:1011B0008095982F0E941E1B0894A11CB11C82E0F0
:1011C00090E0C80ED91EA814B9040CF49ECF8091EB
:1011D0003B03882331F086E494E06FE871E00E94DD
:1011E000FA1F27960FB6F894DEBF0FBECDBFCF9182
:1011F000DF911F910F91FF90EF90DF90CF90BF9004
:10120000AF909F908F907F906F905F904F903F90A6
:101210002F90089588E90E946A068DE00E946A0670
:1012200081E90E946A068FEF0E946A0688E30E94A5
:101230006A068FEF0E946A0688E30E946A068CE9BC
:101240000E946A068FEF0E946A068FEB0E946A0670
:1012500089E80E946A0680E00E946A0680E00E9497
:101260006A0680E00E946A0680E00E946A0664E6E0
:1012700070E080E090E00E941E1B89E90E946A06EF
:1012800008951F93182F8DE80E946A06812F0E94EF
:101290006A061F910895CF92DF92EF92FF921F93FB
:1012A000CF93DF93F82EE62ED72E142F413100F581
:1012B0008CE80E946A068F2D0E946A06812F0E9488
:1012C0006A068E2D9D2D9C01E901EE24FF24C12E7E
:1012D000DD240BC0198188810E946A06812F0E943B
:1012E0006A060894E11CF11C2296EC14FD0494F3A8
:1012F000DF91CF911F91FF90EF90DF90CF900895F5
:10130000DF93CF93CDB7DEB72A970FB6F894DEBF41
:101310000FBECDBF9C01225E3F4F220F331F29839A
:101320002FE02A83880F991F8F5B8B838AE08C8341
:1013300083E0BE016F5F7F4F42E00E944B0964E68D
:1013400070E080E090E00E941E1B83E00E94410953
:101350002A960FB6F894DEBF0FBECDBFCF91DF91B6
:1013600008950F931F93DF93CF93CDB7DEB72797E1
:101370000FB6F894DEBF0FBECDBF8091580290919A
:10138000590220918402892B09F05CC0213079F444
:1013900086E090E090935902809358026AE570E0ED
:1013A00080E090E028E730E040E050E022C02230CA
:1013B00079F486E090E0909359028093580266EAAF
:1013C0007FEF8FEF9FEF28E83FEF4FEF5FEF11C008
:1013D000233009F064C086E090E090935902809336
:1013E00058026AEA70E080E090E02EEB30E040E0E6
:1013F00050E00E9476207093E6026093E50208ECCC
:1014000010E01093E8020093E70264E670E080E0E9
:1014100090E020E931E040E050E00E9476207093B7
:10142000EA026093E90284EB90E09093EC028093EF
:10143000EB021093EE020093ED021092F002109274
:10144000EF0229C021502330D0F482E090E00E94C6
:1014500080091092590210925802109222031092A1
:1014600021038E010F5F1F4FC80164E971E00E94E4
:10147000A021C8010E941705C8010E946322809123
:101480008402843060F083E090E00E948009109232
:1014900059021092580210922203109221032796AB
:1014A0000FB6F894DEBF0FBECDBFCF91DF911F9175
:1014B0000F910895DF93CF93CDB7DEB72A970FB67C
:1014C000F894DEBF0FBECDBF282F220F255D2983E4
:1014D0003AE03A83245F2B833C834F96880F991F11
:1014E0008D833E83245F2F83388784E0BE016F5F46
:1014F0007F4F44E00E944B0964E670E080E090E09A
:101500000E941E1B84E00E9441092A960FB6F8949F
:10151000DEBF0FBECDBFCF91DF9108958F929F9216
:10152000AF92BF92CF92DF92EF92FF920F931F93F1
:10153000DF93CF93CDB7DEB765970FB6F894DEBFD4
:101540000FBECDBF4C0100E010E07E010894E11C0D
:10155000F11C78E0A72EB12CAC0EBD1E6FE0C62E9C
:10156000D12CCC0EDD1E8DE290E00E944A0764EF84
:1015700071E080E090E00E941E1BC70164EA71E008
:101580000E94A021C5016DE270E04AE00E94D321D3
:10159000C701B5010E944921C5010E946322C6010D
:1015A000B7010E944D22C6010E941705C6010E9484
:1015B0006322C4010E945A0A68EE73E080E090E062
:1015C0000E941E1BC7010E9463220F5F1F4F08303D
:1015D000110549F665960FB6F894DEBF0FBECDBF74
:1015E000CF91DF911F910F91FF90EF90DF90CF90FF
:1015F000BF90AF909F908F90089583E90E946A06F4
:101600008091A3020E946A060895382F833010F556
:101610002091A302662369F081E090E0A0E0B0E0B1
:1016200004C0880F991FAA1FBB1F3A95D2F7282B19
:101630000DC081E090E0A0E0B0E004C0880F991FE9
:10164000AA1FBB1F3A95D2F7809528232093A302A7
:101650000E94FD0A08950F931F93CF93DF938C018F
:1016600088E90E946A0681E10E946A0682E061E0E0
:101670000E94050B89E80E946A068091A40290915D
:10168000A50217FF05C0CC27DD27C81BD90B01C059
:10169000EC018D2F992787FD9A950E946A068C2F61
:1016A0000E946A0680E00E946A0680E00E946A0644
:1016B0008DE90E946A06812F992787FD9A950E94DD
:1016C0006A06802F0E946A0689E80E946A0680E006
:1016D0000E946A0680E00E946A0680E00E946A0614
:1016E00080E00E946A0682E060E00E94050B64E6EA
:1016F00070E080E090E00E941E1B89E90E946A066B
:101700008091A6029091A702800F911F9093A7024B
:101710008093A60221E0893692071CF088569140FA
:1017200004C097FF06C088599E4F9093A7028093EC
:10173000A602DF91CF911F910F9108957093A5029A
:101740006093A4020E942B0B80911B0290911C02BB
:101750009093A5028093A4020895EF92FF920F93B5
:101760001F938C017B0181E90E946A06812F9927D2
:1017700087FD9A950E946A06802F0E946A068F2D27
:10178000992787FD9A950E946A068E2D0E946A0607
:101790001F910F91FF90EF900895809137039091E2
:1017A00038031816190644F4609121027091220240
:1017B000CB010E94AD0B0895892B51F0609121025D
:1017C00070912202709561957F4FCB010E94AD0B05
:1017D0000895EF92FF920F931F938C017B0189E88C
:1017E0000E946A06812F992787FD9A950E946A06B2
:1017F000802F0E946A068F2D992787FD9A950E9457
:101800006A068E2D0E946A061F910F91FF90EF903D
:1018100008950F931F93CF93DF938C0187E00E946D
:101820009506EC0188E00E94950610161106A4F4B6
:101830002197239728F48CE291E061E070E010C0DA
:10184000019729F48CE291E066E970E009C08AEF23
:1018500090E062E67DEF04C080E090E060E070E040
:101860000E94E90BDF91CF911F910F91089580E0C5
:1018700090E060E070E00E94E90B08950E94370C50
:1018800010925902109258021092380310923703A6
:1018900010923A031092390380E090E0A0E0B0E0AB
:1018A0008093330390933403A0933503B0933603AE
:1018B000109232031092310308959C0180913903F4
:1018C00090913A03892B69F43093380320933703BE
:1018D00010923A031092390383E10E9495060E9408
:1018E000CD0B86E990E00E94A1062091390330914A
:1018F0003A0337FF03C0309521953F4F809137035E
:101900009091380397FF03C0909581959F4F2817BA
:10191000390714F480E008950E94370C10923803C0
:101920001092370310923A031092390381E0089520
:10193000CF93DF93EC01809184028150833010F5C6
:1019400010925902109258020E940A0981E0809375
:101950002B0280912C0290912D02019690932D02E2
:1019600080932C0280913B03882331F086E494E03D
:101970006BEA71E00E94FA1F64EF71E080E090E092
:101980000E941E1B80918402843081F410925902BF
:10199000109258020E943E0C80913B03882331F044
:1019A00086E494E065EB71E00E94FA1F8091580292
:1019B0009091590218161906D4F4CE010E945D0CBC
:1019C0008823B9F0109259021092580210922B02FB
:1019D00010922D0210922C0280913B03882349F033
:1019E00086E494E067EC71E00E94FA1F02C00E9456
:1019F0003E0CDF91CF9108950F931F938091400388
:101A00009091410397FFCBC080913C0390913D039F
:101A1000892B09F057C086E494E00E94041F80914E
:101A20002B02882319F088E090E002C083E090E068
:101A3000909324028093230280E090E00E944A0861
:101A400080E090E00E94B5078091290290912A02DF
:101A50004AE959E969E97EE30E94340490933D0321
:101A600080933C036AE070E080E090E00E945420A4
:101A700066307105810591054CF080912B02882319
:101A800029F44AE959E969E17FE304C04DEC5CECD3
:101A90006CE47EE388E691E00AE919E929E93EE38E
:101AA0000E94AE0390933F0380933E0381E090E059
:101AB000909359028093580262E370E080E090E0D6
:101AC0000E941E1B8091580290915902892B31F57A
:101AD00060913C0370913D036150704070933D03F1
:101AE00060933C038091420390914303019790934C
:101AF00043038093420380913B03882361F086E493
:101B000094E04AE050E00E94E41F86E494E06AED2D
:101B100071E00E94F71F0E941C0726C080912C02D2
:101B200090912D0220913E0330913F030397CCF01A
:101B3000C9010E94090C80913E0390913F030197D7
:101B400090933F0380933E03892B71F410925902C6
:101B50001092580281E090E090932D0280932C0225
:101B600003C0C9010E94980C8091420390914303E5
:101B7000892BB9F580913B03882331F086E494E00A
:101B80006CED71E00E94F71F809125029091260272
:101B90004AE959E969E17FE30E9434041EC00097D5
:101BA00011F001971AC080913B03882331F086E43D
:101BB00094E06AEE71E00E94F71F809127029091F5
:101BC00028024AE959E969E17FE30E9434049093CD
:101BD0004303809342038FEF9FEF909341038093E1
:101BE00040031F910F910895EF92FF920F931F935F
:101BF000DF93CF93CDB7DEB7A3970FB6F894DEBFD0
:101C00000FBECDBF209121033091220337FDE4C0E8
:101C10008091580290915902281739070CF0DCC0C6
:101C2000C90163E070E00E942B26892B09F061C096
:101C30008091230390912403A0912503B091260362
:101C40000097A105B10599F4220F331F2B513D4F89
:101C5000F901808191810E944A070E94101B6093C4
:101C600023037093240380932503909326030E94FB
:101C7000101B2091230330912403409125035091A0
:101C80002603621B730B840B950B20911F0230916E
:101C90002002442737FD4095542F26173707480761
:101CA000590708F0B9C07FE0E72EF12CEC0EFD1EBD
:101CB000C70164EA71E00E94A021E0912103F09144
:101CC0002203EE0FFF1FEB51FD4F608171818E01EA
:101CD0000F5F1F4FC8014AE00E94D321C701B8011E
:101CE0000E944921C8010E9463228E01085F1F4F94
:101CF00054C0C901019763E070E00E942B26892B34
:101D000091F4F901EE0FFF1FEB51FD4F808191819E
:101D100090932202809321022F5F3F4F3093220342
:101D20002093210379C0C901029763E070E00E940B
:101D30002B26892B09F070C0220F331F2B513D4FEA
:101D4000F901808191810E945D0C882309F464C0AF
:101D50002FE0E22EF12CEC0EFD1EC70168EF71E0C2
:101D60000E94A0218E010A5E1F4FE0912103F09195
:101D70002203EE0FFF1FEB51FD4F60817181C801FF
:101D80004AE00E94D321C701B8010E944921C8013D
:101D90000E9463228E01035E1F4FC801B7010E949B
:101DA0004D22C8010E941705C8010E94632280913C
:101DB00021039091220301969093220380932103A3
:101DC00010922303109224031092250310922603ED
:101DD000C7010E94632220C010925902109258023B
:101DE00010922203109221031092380310923703AD
:101DF00010923A031092390380E090E0A0E0B0E046
:101E00008093330390933403A0933503B093360348
:101E10001092320310923103A3960FB6F894DEBFEE
:101E20000FBECDBFCF91DF911F910F91FF90EF902B
:101E300008958BE80E946A068091A0020E946A06BB
:101E40008091A1020E946A068091A2020E946A0605
:101E5000089583E20E949506982F80939F028091B7
:101E60009E02882341F0923031F464E670E080E015
:101E700090E00E941E1B80919E02823019F4109205
:101E8000C7020895882359F480919F02813039F464
:101E90008091C702882319F483E80E946A06089596
:101EA0000F931F93DF93CF93CDB7DEB76C970FB629
:101EB000F894DEBF0FBECDBF282F462F8E010F5FD7
:101EC0001F4FC801622F20E00E94151A8B819C8150
:101ED00090936B0280936A028D819E81AF81B88559
:101EE00080936C0290936D02A0936E02B0936F0288
:101EF00089859A85AB85BC85809370029093710229
:101F0000A0937202B09373028D85809374028E85C4
:101F1000809375028F8598899093770280937602DB
:101F20008989809378028A899B8990937A02809329
:101F300079028C899D8990937C0280937B028E89A3
:101F40009F8990937E0280937D02888D998D9093D6
:101F5000800280937F028A8D9B8D90938202809372
:101F600081029C8D809183028C7F292F2270917039
:101F7000892B822B80938302C8010E949C1888E6DB
:101F800092E040E051EE60E070E00E94AA176C968B
:101F90000FB6F894DEBF0FBECDBFCF91DF911F917A
:101FA0000F910895EF92FF920F931F938C017B0185
:101FB00060EA7FE080E090E00E941E1BC801B7014C
:101FC0000E94500F80E80E946A0684E80E946A0618
:101FD0001092A0021092A1028FEF8093A2020E94A1
:101FE000190F1F910F91FF90EF9008956F927F92BC
:101FF0008F929F92AF92BF92CF92DF92EF92FF9219
:102000000F931F93DF93CF93CDB7DEB72E970FB605
:10201000F894DEBF0FBECDBF782E692E4A015B015A
:102020006E010894C11CD11CC60166E671E00E94D5
:10203000A021C501B4010E94EA249B01AC017B01EF
:10204000C601B9010E940821C6016AED71E00E9433
:1020500039210027F7FC0095102FC801B7010E9415
:102060001D259B01AC01C501B4010E94852420E01F
:1020700030E048EC52E40E94A9250E94EA2477FF50
:1020800003C0709561957F4F8E010F5F1F4FC80190
:102090000E940821F8E0EF2EF12CEC0EFD1EC70186
:1020A000B8010E945822C70168E271E00E946321D2
:1020B000BC01872D962D0E944D22C7010E946922E6
:1020C000C8010E946322872D962D2E960FB6F89494
:1020D000DEBF0FBECDBFCF91DF911F910F91FF905B
:1020E000EF90DF90CF90BF90AF909F908F907F90B8
:1020F0006F900895EF92FF920F931F93DF93CF930A
:10210000CDB7DEB7A3970FB6F894DEBF0FBECDBF35
:102110007E010894E11CF11CC70166E671E00E9493
:10212000A021C70160EC72E00E944921C70168E26A
:1021300071E00E9439218E01085F1F4F4091B80263
:102140005091B9026091BA027091BB02C8010E941D
:10215000F60FC701B8010E944921C8010E946322FD
:102160008E01015F1F4F4091BC025091BD026091F2
:10217000BE027091BF02C8010E94F60FC701B801EC
:102180000E944921C8010E9463228E010A5E1F4FEE
:102190004091B8025091B9026091BA027091BB02AD
:1021A000C8010E94F60FC701B8010E944921C80169
:1021B0000E9463228E01035E1F4F4091BC0250912A
:1021C000BD026091BE027091BF02C8010E94F60F6D
:1021D000C701B8010E944921C8010E94632286E418
:1021E00094E0B7010E944020C7010E946322A39699
:1021F0000FB6F894DEBF0FBECDBFCF91DF911F9118
:102200000F91FF90EF900895CF92DF92EF92FF929F
:102210000F931F93DF93CF93CDB7DEB72E970FB6F3
:10222000F894DEBF0FBECDBFD82EC92E7E01089414
:10223000E11CF11CC7014AE00E94D3218E01085F16
:102240001F4FC801B7010E945822C80168E271E01F
:102250000E946321BC018D2D9C2D0E944D22C8013E
:102260000E946922C7010E9463228D2D9C2D2E960B
:102270000FB6F894DEBF0FBECDBFCF91DF911F9197
:102280000F91FF90EF90DF90CF900895CF92DF9263
:10229000EF92FF920F931F93DF93CF93CDB7DEB7EB
:1022A0002E970FB6F894DEBF0FBECDBFD82EC92E25
:1022B0007E010894E11CF11CC7014AE00E94D32171
:1022C0008E01085F1F4FC801B7010E945822C80144
:1022D00068E271E00E946321BC018D2D9C2D0E945B
:1022E0004D22C8010E946922C7010E9463228D2DE0
:1022F0009C2D2E960FB6F894DEBF0FBECDBFCF91AA
:10230000DF911F910F91FF90EF90DF90CF90089594
:10231000EF92FF920F931F93DF93CF93CDB7DEB76A
:10232000AA970FB6F894DEBF0FBECDBF7E0108940A
:10233000E11CF11CC70166E671E00E94A021C70103
:102340006DED72E00E944921C70168E271E00E94D0
:1023500039218E01085F1F4F60918902C80170E02A
:102360000E944611C701B8010E944921C8010E947C
:1023700063228E01015F1F4F60918C0270918D026C
:10238000C8010E944611C701B8010E944921C80135
:102390000E9463228E010A5E1F4F6091920270912B
:1023A0009302C8010E944611C701B8010E94492149
:1023B000C8010E9463228E01035E1F4F60919E023E
:1023C000C80170E00E944611C701B8010E9449216E
:1023D000C8010E9463228E010C5D1F4F60919F0215
:1023E000C80170E00E944611C701B8010E9449214E
:1023F000C8010E94632286E494E0B7010E94402055
:10240000C7010E946322AA960FB6F894DEBF0FBEE2
:10241000CDBFCF91DF911F910F91FF90EF90089565
:102420000E94D9060E9488110895EF92FF920F939F
:102430001F93DF93CF93CDB7DEB7A3970FB6F89472
:10244000DEBF0FBECDBF7E010894E11CF11CC701A9
:1024500066E671E00E94A021C70161EB72E00E9474
:102460004921C70168E271E00E9439218E01085FAD
:102470001F4F6091A9027091AA02C8010E944611E3
:10248000C701B8010E944921C8010E9463228E0140
:10249000015F1F4F6091AB027091AC02C8010E94B6
:1024A0004611C701B8010E944921C8010E94632258
:1024B0008E010A5E1F4F6091AD027091AE02C8019D
:1024C0000E944611C701B8010E944921C8010E941B
:1024D00063228E01035E1F4F6091AF027091B002C4
:1024E000C8010E944611C701B8010E944921C801D4
:1024F0000E94632286E494E0B7010E944020C70155
:102500000E946322A3960FB6F894DEBF0FBECDBF24
:10251000CF91DF911F910F91FF90EF900895CF928F
:10252000DF92EF92FF920F931F93DF93CF93CDB77C
:10253000DEB72E970FB6F894DEBF0FBECDBFD82EF4
:10254000C92E7E010894E11CF11CC7014AE00E94DB
:1025500004228E01085F1F4FC801B7010E94582254
:10256000C80168E271E00E946321BC018D2D9C2DA1
:102570000E944D22C8010E946922C7010E94632265
:102580008D2D9C2D2E960FB6F894DEBF0FBECDBFBD
:10259000CF91DF911F910F91FF90EF90DF90CF903F
:1025A0000895EF92FF920F931F93DF93CF93CDB7D0
:1025B000DEB7CB55D0400FB6F894DEBF0FBECDBF0F
:1025C0007E010894E11CF11CC70166E671E00E94DF
:1025D000A0210E949D058E01085F1F4F4091B80207
:1025E0005091B9026091BA027091BB02C8010E9479
:1025F000F60FC701B8010E944921C8010E94632259
:102600008E01015F1F4F4091BC025091BD0260914D
:10261000BE027091BF02C8010E94F60FC701B80147
:102620000E944921C8010E9463220E9456028E0125
:102630000A5E1F4F6091A9027091AA02C8010E9410
:102640004611C701B8010E944921C8010E946322B6
:102650008E01035E1F4F6091AB027091AC02C80106
:102660000E944611C701B8010E944921C8010E9479
:1026700063228E010C5D1F4F6091AD027091AE021E
:10268000C8010E944611C701B8010E944921C80132
:102690000E9463228E01055D1F4F6091AF02709111
:1026A000B002C8010E944611C701B8010E94492129
:1026B000C8010E94632285E00E94671C892B11F4E7
:1026C0000E941C078E010E5C1F4FC801609184029E
:1026D0000E948F127E010894E11CF11CC701B80111
:1026E0000E944921C8010E9463228E01075C1F4F8E
:1026F0006091940270919502C8010E940411C70173
:10270000B8010E944921C8010E9463228E01005C29
:102710001F4F6091960270919702C8010E940411A8
:10272000C701B8010E944921C8010E9463228E019D
:10273000095B1F4F6091980270919902C8010E9435
:102740000411C701B8010E944921C8010E946322F7
:102750008E01025B1F4F60919A0270919B02C8012B
:102760000E940411C701B8010E944921C8010E94BA
:1027700063228E010B5A1F4F60919C0270919D0243
:10278000C8010E940411C701B8010E944921C80173
:102790000E94632286E494E0B7010E944020C701B2
:1027A0000E946322C55ADF4F0FB6F894DEBF0FBEFA
:1027B000CDBFCF91DF911F910F91FF90EF900895C2
:1027C000EF92FF920F931F93DF93CF93CDB7DEB7B6
:1027D000E1970FB6F894DEBF0FBECDBF7E0108941F
:1027E000E11CF11CC70166E671E00E94A021C7014F
:1027F0006FEC72E00E944921C70168E271E00E941B
:1028000039218E01085F1F4FC801609186020E9426
:102810008F12C701B8010E944921C8010E9463229A
:102820008E01015F1F4FC801609187020E948F12C5
:10283000C701B8010E944921C8010E9463228E018C
:102840000A5E1F4FC801609188020E948F12C70163
:10285000B8010E944921C8010E9463228E01035ED3
:102860001F4F6091900270919102C8010E94041163
:10287000C701B8010E944921C8010E9463228E014C
:102880000C5D1F4F60918E0270918F02C8010E94F3
:102890004611C701B8010E944921C8010E94632264
:1028A0008E01055D1F4F60918A0270918B02C801F5
:1028B0000E940411C701B8010E944921C8010E9469
:1028C000632286E494E0B7010E944020C7010E9481
:1028D0006322E1960FB6F894DEBF0FBECDBFCF9155
:1028E000DF911F910F91FF90EF900895EF92FF926B
:1028F0000F931F93DF93CF93CDB7DEB7E1970FB65A
:10290000F894DEBF0FBECDBF7E010894E11CF11C20
:10291000C70166E671E00E94A021C70168EC72E081
:102920000E944921C70168E271E00E9439218E01AD
:10293000085F1F4FC801609184020E948F12C70177
:10294000B8010E944921C8010E9463228E01015FE3
:102950001F4F6091940270919502C8010E9404116A
:10296000C701B8010E944921C8010E9463228E015B
:102970000A5E1F4F6091960270919702C8010E94F3
:102980000411C701B8010E944921C8010E946322B5
:102990008E01035E1F4F6091980270919902C801E9
:1029A0000E940411C701B8010E944921C8010E9478
:1029B00063228E010C5D1F4F60919A0270919B0201
:1029C000C8010E940411C701B8010E944921C80131
:1029D0000E9463228E01055D1F4F60919C027091E1
:1029E0009D02C8010E940411C701B8010E9449213B
:1029F000C8010E94632286E494E0B7010E9440204F
:102A0000C7010E946322E1960FB6F894DEBF0FBEA5
:102A1000CDBFCF91DF911F910F91FF90EF9008955F
:102A20001F9311E0B2C086E494E00E94FC1D8093E5
:102A30001D02843211F40E94E10480911D02803451
:102A400009F0A3C086E494E00E94FC1D80931E025E
:102A5000883609F483C08936ACF4843651F1853662
:102A600054F4823609F44DC083360CF08AC08136A6
:102A700009F08BC039C0863609F44AC087360CF09D
:102A800061C066C08E3609F44DC08F364CF48A366C
:102A900099F08A360CF44BC08C3609F076C03DC0F4
:102AA000843709F449C08537C9F0833709F06DC010
:102AB00021C00E948D0669C080E090E00E947006EF
:102AC00080912C03882321F08FEF9FEF0E947006E6
:102AD00080912C03812780932C0357C080912A0377
:102AE000812780932A0351C080912B0381278093F3
:102AF0002B034BC080915602909157020E948E0A80
:102B000044C080915602909157020E9480093DC0B6
:102B10000E941C070E94761438C00E94F7060E948B
:102B2000E01333C00E9456020E9415122EC00E946C
:102B30009D050E947A1029C08091270381278093E8
:102B4000270323C0809129038127809329031DC077
:102B50008091280381278093280317C062E370E0E7
:102B600080E090E00E941E1B88E691E066E470E041
:102B70000E949E0B66E970E080E090E00E941E1BC0
:102B800004C00E94D9060E94881186E494E00E9445
:102B9000CB1D181619060CF446CF1F91089585E039
:102BA0000E94671C892B11F40E941C070E94761456
:102BB0000E949D050E947A100E9456020E941512E2
:102BC0000895CF93DF9380916C0390916D03A09152
:102BD0006E03B0916F0380529E44A040B040B8F4A1
:102BE0000E94101B209168033091690340916A0391
:102BF00050916B03621B730B840B950B60936C03FA
:102C000070936D0380936E0390936F0328C08EE1E1
:102C100090E00E944A07C0E0D0E065E070E080E00C
:102C200090E00E941E1B80912703882311F00E94D0
:102C3000CF152196C233D10581F70E94101B6093F6
:102C400068037093690380936A0390936B031092F7
:102C50006C0310926D0310926E0310926F03DF915C
:102C6000CF9108950E9410158091C702882341F4E6
:102C700080912C03882321F40E94F40D0E94B10955
:102C800080912703882311F00E94CF1580912B0398
:102C9000882311F00E94E11580912A03882311F006
:102CA0000E94FC0C80912803882311F00E94D1120D
:102CB00080912903882311F00E94101285E00E9460
:102CC000671C892B41F480912C03882321F40E94F6
:102CD0001C070E94290F64E170E080E090E00E94F0
:102CE0001E1B08950F931F93DF93CF9300D0CDB792
:102CF000DEB700E713E0C80160E070E00E94BB1699
:102D00008983C80161E070E00E94BB168A83CE010E
:102D100001960E943D0190935702809356020F90B6
:102D20000F90CF91DF911F910F9108950F931F93F3
:102D300006E414E0C80140E052EC61E070E00E945B
:102D4000441D0E94FA0587E090E064E070E00E9474
:102D5000D20FC80163E072E00E94FA1F85E060E0D4
:102D60000E94D41B82E060E00E94050B0E94721654
:102D70001F910F910895F999FECF72BD61BDF89A28
:102D800080B508950F931F93CF93DF93FC01738D4C
:102D900076957170A685B7859585772329F08C91F6
:102DA000892309F454C004C08C91892309F04FC0D1
:102DB0008389948920E001972FEF8F3F9207D9F7FD
:102DC000C589D689A685B785158560E031E040E0E4
:102DD00050E000E0CE01202F01972FEF8F3F9207A8
:102DE000D9F78C91812311F0632B03C0832F809539
:102DF0006823330F4F5F5F4F4830510559F787897C
:102E0000908D20E001972FEF8F3F9207D9F7711136
:102E100060958091B3032091B40390E001968F7385
:102E2000907030E08217930779F0E091B303F0E0FF
:102E3000ED58FC4F60838091B30390E001968F734F
:102E400090708093B30303C0838D8160838FDF9183
:102E5000CF911F910F9108951F920F920FB60F926D
:102E600011242F933F934F935F936F937F938F938F
:102E70009F93AF93BF93EF93FF93809171039091D2
:102E80007203009711F00E94C216FF91EF91BF915B
:102E9000AF919F918F917F916F915F914F913F91F2
:102EA0002F910F900FBE0F901F9018951F920F92A9
:102EB0000FB60F9211242F933F934F935F936F930D
:102EC0007F938F939F93AF93BF93EF93FF938091E3
:102ED000710390917203009711F00E94C216FF9146
:102EE000EF91BF91AF919F918F917F916F915F9182
:102EF0004F913F912F910F900FBE0F901F901895FB
:102F00001F920F920FB60F9211242F933F934F935E
:102F10005F936F937F938F939F93AF93BF93EF9341
:102F2000FF938091710390917203009711F00E94BA
:102F3000C216FF91EF91BF91AF919F918F917F91B9
:102F40006F915F914F913F912F910F900FBE0F9016
:102F50001F901895CF92DF92EF92FF920F931F93DD
:102F6000CF93DF93EC017A018B011A8E198E188EA4
:102F70001F8A1E8A1D8A1C8A1B8A20E030E0690194
:102F8000CC0CDD1CC20ED31EB601660F771F660F78
:102F9000771FAB0148595F4FFA0185919591A59133
:102FA000B4918E159F05A007B107E9F4FB01E45920
:102FB000FF4F859194919C8B8B8BFB01E259FF4FC6
:102FC000859194919E8B8D8BFB01E059FF4F8591EC
:102FD0009491988F8F8BFB01EE58FF4F85919491C0
:102FE0009A8F898F06C02F5F3F4F2D30310509F032
:102FF000C6CF8F89988D892B09F449C04C854631FD
:1030000008F03DC090916800483010F484E005C09D
:103010004E3010F082E001C081E0892B809368007F
:10302000483028F4EDE6F0E0ADE6B0E00BC04E30FD
:1030300028F0ECE6F0E0ACE6B0E004C0EBE6F0E04F
:10304000ABE6B0E05081483040F481E090E002C04F
:10305000880F991F4A95E2F710C0242F30E04E30B8
:1030600018F42850304002C02E50304081E090E0EB
:1030700002C0880F991F2A95E2F7852B8C93898DC2
:103080009A8D20E001972FEF8F3F9207D9F780911B
:103090007103909172038C179D0781F08B8D8E7F49
:1030A0008B8F9FB7F8941092B3038091B3038093F2
:1030B000B403D0937203C09371039FBFDF91CF918C
:1030C0001F910F91FF90EF90DF90CF900895FC013A
:1030D0004485463180F5483028F4EDE6F0E0ADE671
:1030E000B0E00BC04E3028F4EBE6F0E0ABE6B0E029
:1030F00004C0ECE6F0E0ACE6B0E05081483040F4CB
:1031000081E090E002C0880F991F4A95E2F710C055
:10311000242F30E04E3018F42850304002C02E509A
:10312000304081E090E002C0880F991F2A95E2F7B5
:10313000809585238C930895FC0189E392E0918327
:103140008083CF010E946718089520917103309108
:1031500072032817390731F49091B4038091B303B7
:10316000981719F42FEF3FEF0FC0E091B403F0E090
:10317000ED58FC4F20818091B40390E001968F734D
:1031800090708093B40330E0C901089520917103D9
:10319000309172032817390719F020E030E00EC093
:1031A0008091B3032091B40390E0805C9F4F821B19
:1031B000910960E470E00E942B269C01C9010895EA
:1031C0000F931F93DC0159968D919C915A97892BEF
:1031D00049F481E090E013969C938E93129720E03F
:1031E00030E097C00FB7F8945B968C915B9751963F
:1031F000ED91FC91529750962C91509781FF8DC084
:103200008081822B808359968D919C915A97059647
:1032100020E001972FEF8F3F9207D9F75B968C91B3
:103220005B9781FF35C031E040E050E070E010E096
:10323000832F90E0862397235196ED91FC9152972E
:1032400050962C915097892B29F080812095282326
:10325000208303C08081822B808359968D919C911D
:103260005A97212F01972FEF8F3F9207D9F7330FEE
:103270004F5F5F4F48305105D9F65196ED91FC9163
:103280005297908150968C9150978095892333C0A6
:1032900031E040E050E070E010E0832F90E08623C2
:1032A00097235196ED91FC91529750962C915097FF
:1032B000892B21F08081822B808304C0808120951E
:1032C0002823208359968D919C915A97212F0197FD
:1032D0002FEF8F3F9207D9F7330F4F5F5F4F483083
:1032E0005105D9F65196ED91FC91529780815096F7
:1032F0009C915097892B80830FBF59968D919C91FB
:103300005A9720E001972FEF8F3F9207D9F721E0DE
:1033100030E0C9011F910F910895808120952823E5
:10332000208371CF209171033091720328173907E0
:1033300049F49FB7F8941092B3038091B30380933C
:10334000B4039FBF08952091710330917203281731
:10335000390731F49091B4038091B303981719F4AD
:103360002FEF3FEF0AC0E091B403F0E0ED58FC4FBF
:103370008081282F332727FD3095C90108951F9399
:10338000CF93DF93EC01162F862F60E00E94D41BB1
:103390008B8D81FD04C0812F61E00E94131C1C876E
:1033A000212F30E0C9018A5C9E4FFC0184918D87FA
:1033B0002E5D3E4FF9016491E62FF0E0EE0FFF1F06
:1033C000E85EFE4F859194919F878E87DF91CF9124
:1033D0001F910895FF920F931F938C01F62E862F55
:1033E00061E00E94D41B8F2D61E00E94131C8F2D81
:1033F00090E0FC01EA5CFE4FE491D8015096EC931A
:1034000050978E5D9E4FFC016491E62FF0E0EE0F29
:10341000FF1FE25FFE4F8591949152969C938E938D
:1034200051971F910F91FF900895FF920F931F9353
:103430008C01F62EFC011382128288EE93E0A0E04C
:10344000B0E084839583A683B78389E392E0918378
:103450008083148A138A168A158A108E178A128E10
:10346000118E838D2170220F8C7F822B838FC80158
:10347000642F0E94EA19C8016F2D0E94BF191F9185
:103480000F91FF9008951092B90088E98093B800D9
:103490000895982F84EA8093BC008091BC0087FF38
:1034A000FCCF8091B900887F883021F0803111F005
:1034B00081E008959093BB0084E88093BC008091E4
:1034C000BC0087FFFCCF9091B900987F983111F430
:1034D00080E0089580E0903409F081E00895982F0D
:1034E00044EA34E824E94093BC008091BC0087FFA3
:1034F000FCCF8091B900887F883011F0803199F736
:103500009093BB003093BC008091BC0087FFFCCF40
:103510008091B900887F803211F0883539F420938A
:10352000BC008091BC0084FDFCCFDDCF08950E94DB
:10353000491A089584E98093BC008091BC0084FD01
:10354000FCCF08958093BB0084E88093BC008091F9
:10355000BC0087FFFCCF8091B90090E0887F883263
:1035600009F091E0892F089584EC8093BC0080914C
:10357000BC0087FFFCCF8091BB00089584E8809356
:10358000BC008091BC0087FFFCCF8091BB000895F8
:103590001F920F920FB60F9211242F933F938F9388
:1035A0009F93AF93BF938091B9039091BA03A09179
:1035B000BB03B091BC033091BD030196A11DB11DA9
:1035C000232F2D5F2D3720F02D570196A11DB11D02
:1035D0002093BD038093B9039093BA03A093BB03D8
:1035E000B093BC038091B5039091B603A091B7034B
:1035F000B091B8030196A11DB11D8093B5039093BE
:10360000B603A093B703B093B803BF91AF919F9156
:103610008F913F912F910F900FBE0F901F90189593
:103620008FB7F8942091B9033091BA034091BB034E
:103630005091BC038FBFB901CA0108959B01AC0131
:103640007FB7F8948091B5039091B603A091B7032A
:10365000B091B80366B5A89B05C06F3F19F00196FD
:10366000A11DB11D7FBFBA2FA92F982F8827860FC4
:10367000911DA11DB11D62E0880F991FAA1FBB1FDC
:103680006A95D1F7BC012DC0FFB7F8948091B503BE
:103690009091B603A091B703B091B803E6B5A89B8B
:1036A00005C0EF3F19F00196A11DB11DFFBFBA2F54
:1036B000A92F982F88278E0F911DA11DB11DE2E023
:1036C000880F991FAA1FBB1FEA95D1F7861B970B7E
:1036D000885E9340C8F221503040404050406851CD
:1036E0007C4F211531054105510571F608957894F7
:1036F00084B5826084BD84B5816084BD85B58260F7
:1037000085BD85B5816085BDEEE6F0E08081816094
:103710008083E1E8F0E01082808182608083808194
:1037200081608083E0E8F0E0808181608083E1EB6C
:10373000F0E0808184608083E0EBF0E08081816054
:103740008083EAE7F0E0808184608083808182600A
:1037500080838081816080838081806880831092F3
:10376000C1000895982F8E3008F09E509770809178
:103770002E028295880F880F807C892B80937C0095
:1037800080917A00806480937A0080917A0086FD2F
:10379000FCCF2091780040917900942F80E030E0B8
:1037A000282B392BC9010895CF93DF93482F50E080
:1037B000CA018A5C9E4FFC0134914E5D5E4FFA0156
:1037C0008491882369F190E0880F991FFC01EC5FD8
:1037D000FE4FA591B491FC01E25FFE4FC591D491DB
:1037E000662351F42FB7F8948C91932F90958923E9
:1037F0008C93888189230BC0623061F42FB7F894D1
:103800008C91932F909589238C938881832B888327
:103810002FBF06C09FB7F8948C91832B8C939FBFCA
:10382000DF91CF910895482F50E0CA01865B9E4FEB
:10383000FC012491CA018A5C9E4FFC0194914E5D6B
:103840005E4FFA013491332309F440C0222351F131
:10385000233071F0243028F42130A1F0223011F50A
:1038600014C02630B1F02730C1F02430D9F404C0A0
:10387000809180008F7703C0809180008F7D80933E
:10388000800010C084B58F7702C084B58F7D84BD61
:1038900009C08091B0008F7703C08091B0008F7D08
:1038A0008093B000E32FF0E0EE0FFF1FE25FFE4FCA
:1038B000A591B4912FB7F894662321F48C9190953B
:1038C000892302C08C91892B8C932FBF0895682F78
:1038D00070E0CB01865B9E4FFC012491CB018A5C9A
:1038E0009E4FFC0144916E5D7E4FFB0194919923A4
:1038F00019F420E030E03CC0222351F1233071F074
:10390000243028F42130A1F0223011F514C02630E3
:10391000B1F02730C1F02430D9F404C08091800088
:103920008F7703C0809180008F7D8093800010C0CE
:1039300084B58F7702C084B58F7D84BD09C0809126
:10394000B0008F7703C08091B0008F7D8093B0006E
:10395000892F90E0880F991F885E9E4FFC01A591EA
:10396000B4918C9120E030E0842311F021E030E02C
:10397000C901089508951F920F920FB60F92112456
:103980002F933F934F938F939F93EF93FF93809148
:10399000C00082FD1DC04091C6002091FE03309101
:1039A000FF032F5F3F4F2F73307080910004909181
:1039B00001042817390771F0E091FE03F091FF032D
:1039C000E254FC4F40833093FF032093FE0302C078
:1039D0008091C600FF91EF919F918F914F913F9100
:1039E0002F910F900FBE0F901F901895E0915204E9
:1039F000F0915304E05CFF4F8191919120813181DE
:103A0000821B930B8F739070892B11F00E94BA1C4C
:103A100008951F920F920FB60F9211242F933F9388
:103A20008F939F93EF93FF9320914204309143042F
:103A300080914404909145042817390731F480910E
:103A4000C1008F7D8093C10014C0E0914404F091C7
:103A50004504EE5FFB4F2081809144049091450422
:103A600001968F7390709093450480934404209343
:103A7000C600FF91EF919F918F913F912F910F90F1
:103A80000FBE0F901F901895AF92BF92DF92EF92EA
:103A9000FF920F931F93CF93DF93EC017A018B0179
:103AA000DD24403081EE580780E0680780E0780729
:103AB00011F0DD24D39491E0A92EB12CEC89FD897D
:103AC000DD2069F0C50108A002C0880F991F0A9483
:103AD000E2F7808360E079E08DE390E005C010823A
:103AE00060E874E88EE190E0A80197010E943E260C
:103AF0002150304040405040569547953795279586
:103B000080E12030380720F0DD2011F0DD24D6CF11
:103B1000E889F9893083EA89FB89208319A2EE8933
:103B2000FF89408121E030E0C9010C8C02C0880F80
:103B3000991F0A94E2F7482B4083EE89FF89408160
:103B4000C9010D8C02C0880F991F0A94E2F7482B17
:103B50004083EE89FF894081C9010E8C02C0880F25
:103B6000991F0A94E2F7482B4083EE89FF898081F0
:103B70000F8C02C0220F331F0A94E2F720952823EE
:103B80002083DF91CF911F910F91FF90EF90DF90F5
:103B9000BF90AF900895DC011C96ED91FC911D97AC
:103BA000E05CFF4F2191319180819181281B390B7D
:103BB0002F733070C9010895DC011C96ED91FC91C2
:103BC0001D97E05CFF4F20813181E054F040DF0120
:103BD000AE5BBF4F8D919C9111972817390719F44F
:103BE0002FEF3FEF07C08D919C91E80FF91F808167
:103BF000282F30E0C9010895DC011C96ED91FC915D
:103C00001D97E05CFF4F20813181E054F040DF01DF
:103C1000AE5BBF4F8D919C9111972817390719F40E
:103C20002FEF3FEF10C08D919C911197E80FF91F76
:103C300020818D919C91119701968F7390701196B0
:103C40009C938E9330E0C9010895DC0191968C918C
:103C50009197882339F05496ED91FC915597808186
:103C600086FFF9CF91961C920895CF93DF93EC01D4
:103C7000EE85FF85E05CFF4F20813181E054F0400C
:103C80002F5F3F4F2F733070DF01AE5BBF4F8D91C1
:103C90009C91119728173907D1F3E05CFF4F808181
:103CA0009181E054F040E80FF91F6083EE85FF85B5
:103CB000E05CFF4F31832083EE89FF89208181E022
:103CC00090E00F8C02C0880F991F0A94E2F7282B0E
:103CD000208381E089A3EC89FD89808180648083D1
:103CE00081E090E0DF91CF91089510924904109205
:103CF000480488EE93E0A0E0B0E080934A049093FB
:103D00004B04A0934C04B0934D0489E492E090934B
:103D10004704809346048EEB93E090935304809382
:103D2000520482E094E0909355048093540485EC0F
:103D300090E0909357048093560484EC90E0909325
:103D400059048093580480EC90E090935B04809336
:103D50005A0481EC90E090935D0480935C0482ECC3
:103D600090E090935F0480935E0486EC90E09093E3
:103D700061048093600484E08093620483E0809314
:103D8000630487E08093640485E08093650481E0A8
:103D9000809366040895CF93DF930E94771B0E945F
:103DA0009616C6EFDCE10E9432162097E1F30E94DE
:103DB000F61CF9CFCF92DF92EF92FF920F931F93F1
:103DC000CF93DF937C016B018A01C0E0D0E00FC08C
:103DD000D6016D916D01D701ED91FC910190F081BB
:103DE000E02DC7010995C80FD91F015010400115DA
:103DF000110571F7CE01DF91CF911F910F91FF90C7
:103E0000EF90DF90CF900895EF92FF920F931F9362
:103E10008C01DC01ED91FC910190F081E02D6DE0D1
:103E200009957C01D801ED91FC910190F081E02D84
:103E3000C8016AE009959C012E0D3F1DC9011F9123
:103E40000F91FF90EF900895CF93DF93EC016115F0
:103E5000710519F420E030E00FC0DB010D90002067
:103E6000E9F71197A61BB70BE881F9810280F3816E
:103E7000E02DAD0109959C01C901DF91CF91089515
:103E80004F925F927F928F929F92AF92BF92CF920A
:103E9000DF92EF92FF920F931F93DF93CF93CDB7F3
:103EA000DEB7A1970FB6F894DEBF0FBECDBF2C01D1
:103EB000742ECB01223008F42AE019A231E2C32E7D
:103EC000D12CCC0EDD1E822E9924AA24BB24672D72
:103ED000752FA50194010E943E2679018A01C8012F
:103EE000B701A50194010E940C26472D461B08949A
:103EF000C108D1084A3014F4405D01C0495CF601A4
:103F00004083E114F1040105110521F07E2C5F2DA1
:103F1000C801DDCFC201B6010E94241FA1960FB6D1
:103F2000F894DEBF0FBECDBFCF91DF911F910F91EF
:103F3000FF90EF90DF90CF90BF90AF909F908F90C9
:103F40007F905F904F900895CF92DF92EF92FF9213
:103F50000F931F93CF93DF93EC016A017B0121152F
:103F6000310541F4E881F9810190F081E02D642F61
:103F700009951FC02A303105D1F477FF17C0E881B9
:103F8000F9810190F081E02D6DE209958C014427C3
:103F90005527BA014C195D096E097F09CE012AE047
:103FA0000E94401F9801280F391F04C02AE00E9478
:103FB000401F9C01C901DF91CF911F910F91FF908C
:103FC000EF90DF90CF900895EF92FF920F931F93A1
:103FD0007B019A010027F7FC0095102FB801A7017B
:103FE0000E94A41F1F910F91FF90EF9008950E94CF
:103FF000241F0895EF92FF920F931F937C010E945C
:10400000241F8C01C7010E94041F080F191FC8013B
:104010001F910F91FF90EF900895AF92BF92CF92B2
:10402000DF92EF92FF920F931F93CF93DF935C0188
:104030006B01EE24FF24C0E0D0E010C0D501ED916B
:10404000FC9100811181C601BE010E949420682F5D
:10405000C501F8010995E80EF91E2196F601848143
:104060009581C817D90750F3C701DF91CF911F91F0
:104070000F91FF90EF90DF90CF90BF90AF90089599
:10408000EF92FF920F931F937C010E940D208C01F1
:10409000C7010E94041F9C01200F311FC9011F91FD
:1040A0000F91FF90EF900895EF92FF920F931F935F
:1040B0007B018C01611571058105910529F420E0D2
:1040C00030E040E050E00BC00E942F01A8019701B2
:1040D0000E946026AC01CB01DA019C01AD01B9015F
:1040E000CA011F910F91FF90EF900895EF92FF92F8
:1040F0000F931F937B018C01621773078407950749
:1041000064F4261B370B480B590BCA01B9010E94F6
:104110005420E60EF71E081F191FB701C8011F9192
:104120000F91FF90EF900895FC01848195816817AD
:10413000790748F40190F081E02D309721F0E60FE7
:10414000F71F8081089580E008950F931F93CF9308
:10415000DF93EC018B016F5F7F4F888199810E9413
:10416000A423009711F480E005C0998388831B8302
:104170000A8381E0DF91CF911F910F910895CF9332
:10418000DF93EC0188819981892B29F08A819B81B9
:104190008617970760F4CE010E94A520882341F07E
:1041A0008C819D81892B19F4E881F981108281E04D
:1041B000DF91CF910895EF92FF920F931F93CF93CA
:1041C000DF93EC017B016C817D81E114F104C1F08E
:1041D0004115510599F08A01060F171FB8010E9479
:1041E000BF20882369F0888199812C813D81820FCD
:1041F000931FB7010E9464011D830C8381E001C0FD
:1042000080E0DF91CF911F910F91FF90EF90089583
:10421000EF92FF920F931F93DF93CF93CDB7DEB74B
:1042200027970FB6F894DEBF0FBECDBF7C01CB0140
:104230008E010F5F1F4FB8014AE050E00E946B01F2
:10424000F80101900020E9F73197E01BF10BC7015D
:10425000B801AF010E94DB2027960FB6F894DEBFAD
:104260000FBECDBFCF91DF911F910F91FF90EF90C7
:1042700008956115710511F480E00895DB010D903A
:104280000020E9F71197A61BB70BAD010E94DB20B8
:104290000895FB0160817181448155810E94DB207A
:1042A0000895CF93DF93EC0188819981009711F0F5
:1042B0000E940C23198218821D821C821B821A8282
:1042C000DF91CF9108950F931F93182F092F611538
:1042D000710561F0DB010D900020E9F71197A61B35
:1042E000B70BAD010E94DB20882321F4812F902F92
:1042F0000E945121812F902F1F910F910895EF92CD
:10430000FF920F931F93CF93DF93EC017B018A0100
:10431000BA010E94BF20882321F4CE010E945121BE
:1043200007C01D830C8388819981B7010E946401B5
:10433000CE01DF91CF911F910F91FF90EF900895E3
:10434000CF93DF93EC01198218821B821A821D829F
:104350001C821E826115710551F0DB010D90002059
:10436000E9F71197A61BB70BAD010E947F21DF91E2
:10437000CF9108950F931F93182F092F6115710581
:1043800059F0DB010D900020E9F71197A61BB70B40
:10439000AD010E947F2102C00E945121812F902FE8
:1043A0001F910F910895EF92FF920F931F93DF9348
:1043B000CF93CDB7DEB762970FB6F894DEBF0FBECE
:1043C000CDBF8C01CB01F8011182108213821282C1
:1043D0001582148216827E010894E11CF11CB7013B
:1043E00050E00E946B01C801B7010E94BA21629699
:1043F0000FB6F894DEBF0FBECDBFCF91DF911F91F6
:104400000F91FF90EF900895EF92FF920F931F93FB
:10441000DF93CF93CDB7DEB729970FB6F894DEBF01
:104420000FBECDBF8C01862FF8011182108213823E
:10443000128215821482168290E07E010894E11C9B
:10444000F11CB70150E00E949401C801B7010E941D
:10445000BA2129960FB6F894DEBF0FBECDBFCF911B
:10446000DF911F910F91FF90EF900895CF93DF930D
:10447000EC01FB018617970761F06081718161157E
:10448000710529F0448155810E947F2102C00E945C
:104490005121CE01DF91CF910895FC01118210824C
:1044A000138212821582148216820E943622089587
:1044B000FC011182108213821282158214821682EC
:1044C0000E9436220895FC01808191810E940C2374
:1044D0000895FC01808191810E940C2308950F931F
:1044E0001F93CF93DF93BC018230910510F462E0FB
:1044F00070E0E0916A04F0916B04A0E0B0E040E06D
:1045000050E024C08081918186179707D0F08617EC
:10451000970771F482819381109729F013969C93E9
:104520008E9312972CC090936B0480936A0427C0DB
:104530004115510519F08417950718F4EF018D0105
:10454000AC01DF01828193819C01F9013097D1F6A2
:1045500041155105F9F0CA01861B970B843091056E
:1045600080F48A819B810115110521F0F801938364
:10457000828304C090936B0480936A04FE01329698
:1045800045C0FE01E80FF91F61937193029799836B
:1045900088833CC08091680490916904892B41F420
:1045A0008091310290913202909369048093680463
:1045B00040913302509134024115510541F44DB7F9
:1045C0005EB780912F0290913002481B590B2091C9
:1045D00068043091690424173507B0F4CA01821BBE
:1045E000930B8617970780F0AB014E5F5F4F8417E0
:1045F000950750F0420F531F50936904409368048D
:10460000F9016193719302C0E0E0F0E0CF01DF9126
:10461000CF911F910F910895CF93DF939C01009745
:1046200009F48FC0EC0122971B821A8260916A0400
:1046300070916B046115710581F488819981820FF5
:10464000931F20916804309169042817390739F5C0
:10465000D0936904C093680474C0DB0140E050E06B
:10466000AC17BD0708F1BB83AA83FE0121913191EC
:10467000E20FF31FAE17BF0779F48D919C9111974C
:10468000280F391F2E5F3F4F3983288312968D9153
:104690009C9113979B838A834115510571F4D093A4
:1046A0006B04C0936A044DC012968D919C91139730
:1046B000AD01009711F0DC01D3CFDA011396DC9342
:1046C000CE931297FA0121913191E20FF31FCE1789
:1046D000DF0769F488819981280F391F2E5F3F4FCA
:1046E000FA01318320838A819B8193838283E0E076
:1046F000F0E0DB0112968D919C911397009719F0D1
:10470000BC01FD01F6CFAB014E5F5F4FDB018D9128
:104710009C91840F951F209168043091690428179B
:10472000390779F4309729F410926B0410926A04D7
:1047300002C0138212824250504050936904409349
:104740006804DF91CF9108956F927F928F929F922C
:10475000AF92BF92CF92DF92EF92FF920F931F938F
:10476000CF93DF938C01009729F4CB010E946F2235
:104770008C01BBC08EEFE82E8FEFF82EE00EF11EFD
:104780004801860E971E8E149F0408F4ACC0D70112
:104790004D915C91119746175707B8F04530510578
:1047A00008F4A3C0CA0104978617970708F49DC0B0
:1047B00042505040461B570BF401419351936D9367
:1047C0007C93CF010E940C2390C05B01A41AB50A10
:1047D0003801640E751EA0916A04B0916B04CC245C
:1047E000DD24E0E0F0E047C0A615B705A9F5CD91BE
:1047F000DC911197CE0102968A159B0568F1CE01D6
:104800008A199B09029612962C91129713963C9145
:10481000059758F0F40122833383CA19DB09D18349
:10482000C083D7016D937C9309C04E5F5F4F4C0FDF
:104830005D1FF70151834083C901FC01C114D104FC
:1048400031F0D6011396FC93EE9312974EC0F0937D
:104850006B04E0936A0449C08D919C911197E8170D
:10486000F90708F4FC016D0112968C9112971396CA
:104870009C919C01D901109709F0B6CF80916804F2
:104880009091690486159705E9F4E617F707D0F4C7
:1048900020913302309134022115310541F42DB7B6
:1048A0003EB780912F0290913002281B390B82165F
:1048B0009306C8F49092690480926804F7017183AA
:1048C000608313C0CB010E946F22EC01009759F066
:1048D000D7014D915C91B8010E945B01C8010E9413
:1048E0000C238E0102C000E010E0C801DF91CF91DF
:1048F0001F910F91FF90EF90DF90CF90BF90AF90FE
:104900009F908F907F906F9008955058BB27AA2753
:104910000ED0E5C0D6D030F0DBD020F031F49F3F90
:1049200011F41EF4CBC00EF4E095E7FBC1C0E92FF3
:10493000E7D080F3BA17620773078407950718F06A
:1049400071F49EF5FFC00EF4E0950B2EBA2FA02D4A
:104950000B01B90190010C01CA01A0011124FF272C
:10496000591B99F0593F50F4503E68F11A16F04027
:10497000A22F232F342F4427585FF3CF4695379526
:104980002795A795F0405395C9F77EF41F16BA0BEB
:10499000620B730B840BBAF09150A1F0FF0FBB1F99
:1049A000661F771F881FC2F70EC0BA0F621F731FE2
:1049B000841F48F4879577956795B795F7959E3F3F
:1049C00008F0B3CF9395880F08F09927EE0F9795CD
:1049D0008795089504D06894B111B5C0089598D012
:1049E00088F09F5790F0B92F9927B751A0F0D1F0D8
:1049F000660F771F881F991F1AF0BA95C9F712C062
:104A0000B13081F09FD0B1E008959CC0672F782F1E
:104A10008827B85F39F0B93FCCF3869577956795CD
:104A2000B395D9F73EF490958095709561957F4F39
:104A30008F4F9F4F0895E89409C097FB3EF49095DF
:104A40008095709561957F4F8F4F9F4F9923A9F067
:104A5000F92F96E9BB279395F695879577956795F6
:104A6000B795F111F8CFFAF4BB0F11F460FF1BC03A
:104A70006F5F7F4F8F4F9F4F16C0882311F096E9CD
:104A800011C0772321F09EE8872F762F05C066237B
:104A900071F096E8862F70E060E02AF09A95660F34
:104AA000771F881FDAF7880F9695879597F90895ED
:104AB00097F99F6780E870E060E008959FEF80ECD1
:104AC000089500240A941616170618060906089574
:104AD00000240A9412161306140605060895092EDA
:104AE0000394000C11F4882352F0BB0F40F4BF2B49
:104AF00011F460FF04C06F5F7F4F8F4F9F4F089589
:104B000057FD9058440F551F59F05F3F71F047957E
:104B1000880F97FB991F61F09F3F79F08795089563
:104B2000121613061406551FF2CF4695F1DF08C082
:104B3000161617061806991FF1CF8695710561059F
:104B400008940895E894BB2766277727CB0197F947
:104B500008950BD0C4CFB5DF28F0BADF18F0952345
:104B600009F0A6CFABCF1124EECFCADFA0F3959FFB
:104B7000D1F3950F50E0551F629FF001729FBB2744
:104B8000F00DB11D639FAA27F00DB11DAA1F649FF0
:104B90006627B00DA11D661F829F2227B00DA11DA3
:104BA000621F739FB00DA11D621F839FA00D611D29
:104BB000221F749F3327A00D611D231F849F600D4A
:104BC000211D822F762F6A2F11249F5750408AF083
:104BD000E1F088234AF0EE0FFF1FBB1F661F771F0F
:104BE000881F91505040A9F79E3F510570F060CF4B
:104BF000AACF5F3FECF3983EDCF3869577956795F7
:104C0000B795F795E7959F5FC1F7FE2B880F911D2C
:104C10009695879597F90895629FD001739FF0014B
:104C2000829FE00DF11D649FE00DF11D929FF00D3C
:104C3000839FF00D749FF00D659FF00D9927729F73
:104C4000B00DE11DF91F639FB00DE11DF91FBD01FE
:104C5000CF011124089597FB092E07260AD077FD6E
:104C600004D049D006D000201AF4709561957F4F8A
:104C70000895F6F7909581959F4F0895A1E21A2E19
:104C8000AA1BBB1BFD010DC0AA1FBB1FEE1FFF1FF0
:104C9000A217B307E407F50720F0A21BB30BE40B40
:104CA000F50B661F771F881F991F1A9469F7609587
:104CB0007095809590959B01AC01BD01CF01089541
:104CC00097FB092E05260ED057FD04D0D7DF0AD05A
:104CD000001C38F450954095309521953F4F4F4F2B
:104CE0005F4F0895F6F790958095709561957F4F89
:104CF0008F4F9F4F0895AA1BBB1B51E107C0AA1FEE
:104D0000BB1FA617B70710F0A61BB70B881F991F6C
:104D10005A95A9F780959095BC01CD010895EE0FA5
:104D2000FF1F0590F491E02D09942F923F924F922E
:104D30005F926F927F928F929F92AF92BF92CF922B
:104D4000DF92EF92FF920F931F93CF93DF93CDB734
:104D5000DEB7CA1BDB0B0FB6F894DEBF0FBECDBFAC
:104D600009942A88398848885F846E847D848C847D
:104D70009B84AA84B984C884DF80EE80FD800C8186
:104D80001B81AA81B981CE0FD11D0FB6F894DEBF69
:104D90000FBECDBFED01089511E0C2E6D1E004C021
:104DA000FE010E9491262296C436D107C9F7F894D5
:024DB000FFCF33
:104DB200236D736700237374740023616E61002393
:104DC200697463002363667300236373730023644F
:104DD2006973002363686700200020202020006C94
:104DE2006F776573742076616C75653A00626573DE
:104DF2007420646972656374696F6E3A006E6577D8
:104E02002064697374616E63653A006E657720632E
:104E120079636C653A000049324320696E697469AE
:104E2200616C697A6564000909006572726F7200CB
:104E32005475726E20616E676C652069733A00204A
:104E42002D2D200062756D7020616E642062616399
:104E52006B7570007475726E3A2000436F6C6C69EA
:104E620073696F6E0020576865656C2061626F76AA
:104E72006520332E20200044697374616E636520BF
:104E820066696E69736865642E002E0072657374BC
:104E92005F74696D6572202D20006D6F76655F7499
:104EA200696D6572202D200064697374616E63659B
:104EB2003A200054616C6B696E67207769746820D0
:104EC2004372656174650001000000C8006C6CDC0F
:104ED2000564000800780050000C00010100018008
:104EE200006C04000000000000E018DA1EC618A5DD
:104EF20018A319921900000000351EDA1ECB1DFC02
:064F02001DDC1D251E0050
:00000001FF
