:100000000C94F0000C9418010C9418010C94761BBD
:100010000C94A01B0C94CA1B0C9418010C9418018E
:100020000C9418010C9418010C9418010C94471AA4
:100030000C9418010C9418010C9418010C941801DC
:100040000C94121F0C9418010C9405210C9453214C
:100050000C9418010C9418010C9418010C941801BC
:100060000C9418010C941801C706CA06CD06D006D8
:10007000D306D606D906DC06C507C507DF06E206A5
:10008000E506F106FD0600070C07180724073007F0
:100090003C074807540760076C0778077B0787070A
:1000A0008A078D07900793079607A207AE07BA073E
:1000B0009716A416ED168E16CB16AB16C516D116CE
:1000C000BA1686167716B0168815B516F116DF150E
:1000D00089165E169D16BF16911607165716AD1592
:1000E000F116641600C201000100110011000C009D
:1000F00000E100000A002500250021000096000014
:100100001900390039003600127A00001F0046003D
:10011000460044008070000022004D004D004A005F
:10012000004B00003600750075007200403800007A
:100130004A009C009C009900802500007200EC00A1
:10014000EC00E900C0120000E900DA01DA01D70191
:1001500060090000D701B603B603B303B004000082
:10016000B3036E076E076B07580200006E07DC0EC4
:10017000DC0ED80E2C010000DC0EC11DC11DBE1D01
:1001800000000000240027002A00000000002500D5
:1001900028002B0000000000230026002900040492
:1001A000040404040404020202020202030303031F
:1001B00003030102040810204080010204081020FB
:1001C00001020408102000000007000201000003E3
:1001D000040600000000000000009102BF228A0215
:1001E00011241FBECFEFD8E0DEBFCDBF12E0A0E0EC
:1001F000B1E0E4EDF7E502C005900D92A23CB10735
:10020000D9F715E0A2ECB2E001C01D92AE32B10701
:10021000E1F711E0CEEDD1E004C02297FE010E948B
:10022000A22BCA3DD107C9F70E9415230C94DD2BE0
:100230000C940000A0E0B0E0E0E2F1E00C94AE2B02
:10024000EC01A880B980CA80DB80A114B104C1048C
:10025000D10441F484E2A82E89EDB82E8BE5C82E96
:1002600087E0D82EC601B5012DE133EF41E050E023
:100270000E94712B27EA31E440E050E00E94112BEC
:100280007B018C01C601B5012DE133EF41E050E067
:100290000E94712BCA01B9012CEE34EF4FEF5FEFD2
:1002A0000E94112B6E0D7F1D801F911F97FF04C0B0
:1002B0006150704080409048688379838A839B8333
:1002C0009B01AC015F77B901CA01CDB7DEB7EAE0A7
:1002D0000C94CA2B0E941A01089582E892E00E94B1
:1002E0001A010895609382027093830280938402BE
:1002F000909385020895FC0188279927E89421911D
:100300002032E9F3293010F02E30C8F32B3241F0BF
:100310002D3239F4689404C00E94CA01820F911DE5
:10032000219120532A30C0F31EF4909581959F4F60
:100330000895FB01DC0102C001900D924150504034
:10034000D8F70895FB01DC0101900D920020E1F740
:100350000895FB019F01E8944230C4F04532B4F4A3
:100360004A3029F497FB1EF4909581959F4F642F96
:1003700077270E948C2B805D8A330CF0895D8193F6
:10038000CB010097A1F716F45DE251931082C901E9
:100390000C94E8017AE0979F902D879F802D910D16
:1003A00011240895FB019F01423074F0453264F43A
:1003B000642F77270E948C2B805D8A330CF0895D37
:1003C0008193CB010097A1F71082C9010C94E80139
:1003D000DC01FC01672F71917723E1F7329704C0AC
:1003E0007C916D9370836291AE17BF07C8F3089537
:1003F0008130910509F064C06F5F7F4F09F089C0BB
:1004000086EC92E060E071E00E9415268DEC92E0AF
:1004100065E071E00E94152684ED92E067E044E01B
:1004200020E00E945F1E8091860290918702909347
:1004300028038093270384E393E06AE071E00E943D
:10044000152683E493E06FE071E00E9415268BE4AB
:1004500093E064E171E00E94152682E593E069E192
:1004600071E00E94152689E593E06EE171E00E943B
:10047000152680E693E063E271E00E94152685EB85
:1004800093E00E94DA1880919602909197029093DF
:10049000D7038093D6038091940290919502909314
:1004A000D9038093D8038091920290919302909304
:1004B000DB038093DA039093DD038093DC030895DC
:1004C000892B39F56F5F7F4F21F580E693E00E941D
:1004D000D82689E593E00E94D82682E593E00E9421
:1004E000D8268BE493E00E94D82683E493E00E9410
:1004F000D82684E393E00E94D82684ED92E00E94FF
:10050000E61C8DEC92E00E94D82686EC92E00E94D8
:10051000D826089580E090E06FEF7FEF0E94F80109
:10052000089581E090E06FEF7FEF0E94F801089559
:100530000F931F9310922D0310922C0310922F03F0
:1005400010922E0310923103109230031092330355
:10055000109232038EE00E94FC1F90932D03809333
:100560002C0300912E0310912F038FE00E94FC1F9B
:10057000080F191F10932F0300932E0300913003CF
:100580001091310380E10E94FC1F080F191F109386
:10059000310300933003009132031091330381E162
:1005A0000E94FC1F080F191F10933303009332039E
:1005B0001F910F9108950F931F93CF93DF938C0199
:1005C000EB018091D503882371F141155105D9F4D0
:1005D00088E095E00E944E2388E095E0BE010E94ED
:1005E000572488E095E068E271E00E94412488E0A9
:1005F00095E0B8014AE050E00E942E2488E095E0A2
:100600000E944E2310C04130510569F488E095E006
:10061000B8014AE050E00E942E2488E095E06AE2AA
:1006200071E00E944124DF91CF911F910F910895B5
:100630002F923F924F925F926F927F928F929F92F2
:10064000AF92BF92CF92DF92EF92FF920F931F93E0
:10065000DF93CF93CDB7DEB72E970FB6F894DEBFFA
:100660000FBECDBF2DB63EB6809090029090910205
:10067000C401880F991F2DB73EB7281B390B0FB641
:10068000F8943EBF0FBE2DBFADB6BEB60894A11CF8
:10069000B11C4090DE035090DF0335010CED13E0F8
:1006A0006501E0E0F0E07C01E00EF11E2BC0D80116
:1006B00012968D919C911397309731F4D7012D911B
:1006C0003C91280F391F0CC0D8012D913C91280F67
:1006D000391FEB30F10521F4C901840D951D07C0C8
:1006E000D80114968D919C911597820F931F63E00A
:1006F00070E00E943C2BD6016D937D936D01319685
:100700000E5F1F4FE815F90594F26091980291E091
:10071000C92ED12C40E050E016C0EA0DFB1DD301DC
:100720002D913C91808191812817390734F46623FB
:1007300019F04115510509F06A014F5F5F4FE2E082
:10074000F0E06E0E7F1EF601EE0FFF1F48155905F3
:1007500024F3AE0EBF1ED5010D911C917E010894AD
:10076000E11CF11CC7016FE271E00E941526C8016F
:10077000B70140E050E00E94DB02C7010E94D8268A
:100780008E01085F1F4FC8016DE371E00E941526BE
:10079000C601B80140E050E00E94DB02C8010E949F
:1007A000D826C6010FB6F8943EBE0FBE2DBE2E96BB
:1007B0000FB6F894DEBF0FBECDBFCF91DF911F9172
:1007C0000F91FF90EF90DF90CF90BF90AF909F90F0
:1007D0008F907F906F905F904F903F902F900895F3
:1007E0006F927F928F929F92AF92BF92CF92DF9241
:1007F000EF92FF920F931F93DF93CF93CDB7DEB7A6
:1008000027970FB6F894DEBF0FBECDBF6A017B01FC
:1008100038014901AA2797FDA095BA2FBC01CD0147
:100820000E94FE29A70196010E94AE2A0E94CB29B0
:10083000882777FD8095982F0E94FE297B018C01E7
:1008400060E070E080E89FE3A40193010E94FA2831
:1008500020E030E040E85FE30E94FB28A801970118
:100860000E94AE2A0E94CB290E94E7245B016C0102
:10087000C401B301A80197010E94AE2A7B018C013B
:10088000C601B5010E94FE299B01AC01C801B70158
:100890000E94FB280E94CB297B018C016E010894E9
:1008A000C11CD11CC6016DE471E00E941526C70170
:1008B000B60140E050E00E94DB02C6010E94D8264B
:1008C000C70127960FB6F894DEBF0FBECDBFCF91FC
:1008D000DF911F910F91FF90EF90DF90CF90BF902D
:1008E000AF909F908F907F906F9008956F927F92BE
:1008F0008F929F92AF92BF92CF92DF92EF92FF9230
:100900000F931F93DF93CF93CDB7DEB727970FB623
:10091000F894DEBF0FBECDBF3A014B01AA2797FD69
:10092000A095BA2FBC01CD010E94FE297B018C014C
:1009300060E070E080E89FE3A40193010E94FA2840
:1009400020E030E040E85FE30E94FB28A801970127
:100950000E94AE2A0E94CB290E94E7245B016C0111
:10096000C401B301A80197010E94AE2A7B018C014A
:10097000C601B5010E94FE299B01AC01C801B70167
:100980000E94FB280E94CB297B018C016E010894F8
:10099000C11CD11CC6016BE571E00E941526C70180
:1009A000B60140E050E00E94DB02C6010E94D8265A
:1009B000C70127960FB6F894DEBF0FBECDBFCF910B
:1009C000DF911F910F91FF90EF90DF90CF90BF903C
:1009D000AF909F908F907F906F900895EF92FF92CD
:1009E0000F931F93DF93CF9300D000D0CDB7DEB726
:1009F0008E010F5F1F4F35E0E32EF12CEC0EFD1E34
:100A000088E095E00E944622282F992787FD90953F
:100A1000C0970A9710F02D3211F4F80120830F5F70
:100A20001F4F0E151F0561F7CE0101960E947B0135
:100A30000F900F900F900F90CF91DF911F910F911A
:100A4000FF90EF9008950F931F93CF93DF9388E06B
:100A500095E00E94462280936F038FE693E00E9408
:100A60007B019093C5028093C40200E713E0C0E0CD
:100A7000D0E013C00E94EE04F801819391938F019E
:100A80001092AD031092AC031092AE031092AF031C
:100A90001092B0031092B10321968091C4029091FC
:100AA000C502C817D90734F3DF91CF911F910F9179
:100AB0000895EF92FF920F931F93DF93CF93CDB7DB
:100AC000DEB727970FB6F894DEBF0FBECDBF7C010F
:100AD0008E010F5F1F4FC80166E671E00E94152668
:100AE000C8016DEC72E00E94BE25C80168E271E0A9
:100AF0000E94AE25C801B7010E94BE2588E095E09E
:100B0000B8010E948A24C8010E94D82627960FB6F1
:100B1000F894DEBF0FBECDBFCF91DF911F910F9133
:100B2000FF90EF900895DF92EF92FF920F931F9343
:100B300084EB0E94B91E87E00E94EC1E85EB0E94A8
:100B4000E11E0E94FE1ED82E0E94FE1EE82E0E946C
:100B5000081F0E94E41EFF248FE7E822FF24FE2CDA
:100B6000EE24ED0CF11C0027F7FC0095102FC801B6
:100B7000B7010E94FE292AE037ED43EA5CE30E94B8
:100B8000AE2A2AE037ED43E25CE30E94FA2823E331
:100B900033E948E853E40E94FA2826E636E646EEB2
:100BA0005FE30E94AE2A20E030E040E052E40E9481
:100BB000FB281F910F91FF90EF90DF900895EF9227
:100BC000FF920F931F9380E090E0A0E0B0E080934D
:100BD0003B0390933C03A0933D03B0933E0380936B
:100BE0003F0390934003A0934103B09342038CE0F2
:100BF00061E00E945D2088E060E00E945D20E0905E
:100C00003B03F0903C0300913D0310913E030E9492
:100C100093059B01AC01C801B7010E94FB286093BA
:100C20003B0370933C0380933D0390933E038CE021
:100C300060E00E945D2088E060E00E945D20E0901E
:100C40003F03F090400300914103109142030E9442
:100C500093059B01AC01C801B7010E94FB2860937A
:100C60003F037093400380934103909342031F918D
:100C70000F91FF90EF9008950E948D1E80E388B938
:100C800088E095E067E671E00E9444248CE061E032
:100C90000E941E2088E061E00E941E2088E061E042
:100CA0000E945D208CE061E00E945D20089584ED4B
:100CB00092E00E94101D0895EF92FF920F931F93F0
:100CC0000E945A1F7B018C010EC00E945A1F6E1990
:100CD0007F09800B910B6A3171058105910518F030
:100CE00020E030E006C00E945706892B71F321E016
:100CF00030E0C9011F910F91FF90EF90089584EDAE
:100D000092E00E94EF1C08951F93CF93DF930E94FF
:100D10005C06892B19F4C0E0D0E019C00E947F0660
:100D2000182F0E945706892B49F00E947F06312F09
:100D300020E0C82FD0E0C22BD32B05C0C12FD0E0BC
:100D400002C00E947F060E945706892BD1F7CE0170
:100D5000DF91CF911F9108950F931F93082F0E9449
:100D60005C06892B09F411C10E947F06182F802F81
:100D700090E0FC013797E432F10508F006C1EC5C25
:100D8000FF4FEE0FFF1F0590F491E02D0994109393
:100D9000F002FBC01093F102F8C01093F202F5C00C
:100DA0001093F302F2C01093F402EFC01093F50217
:100DB000ECC01093F602E9C01093F702E6C010935E
:100DC000F802E3C01093F902E0C00E947F0690E0B1
:100DD000312F20E0822B932B9093FB028093FA0219
:100DE000D4C00E947F0690E0312F20E0822B932B0D
:100DF0009093FD028093FC02C8C01093FE02C5C010
:100E00000E947F0690E0312F20E0822B932B90935D
:100E100000038093FF02B9C00E947F0690E0312F4B
:100E200020E0822B932B9093020380930103ADC0AB
:100E30000E947F0690E0312F20E0822B932B90932D
:100E4000040380930303A1C00E947F0690E0312F2A
:100E500020E0822B932B909306038093050395C08B
:100E60000E947F0690E0312F20E0822B932B9093FD
:100E700008038093070389C00E947F0690E0312F0A
:100E800020E0822B932B90930A03809309037DC06B
:100E90000E947F0690E0312F20E0822B932B9093CD
:100EA0000C0380930B0371C00E947F0690E0312FEA
:100EB00020E0822B932B90930E0380930D0365C04B
:100EC0000E947F0690E0312F20E0822B932B90939D
:100ED000100380930F0359C00E947F0690E0312FCA
:100EE00020E0822B932B90931203809311034DC02B
:100EF000109313034AC00E947F0690E0312F20E038
:100F0000822B932B90931503809314033EC0109370
:100F100016033BC01093170338C01093180335C055
:100F20001093190332C010931A032FC00E947F063A
:100F300090E0312F20E0822B932B90931C03809321
:100F40001B0323C00E947F0690E0312F20E0822BFC
:100F5000932B90931E0380931D0317C00E947F065E
:100F600090E0312F20E0822B932B909320038093ED
:100F70001F030BC00E947F0690E0312F20E0822BE0
:100F8000932B90932203809321031F910F91089537
:100F9000682F84ED92E00E942A1D0895CF93DF937D
:100FA000EC0180912B03882321F08FEFCF3FD807EE
:100FB00079F488E80E94C8078C2F0E94C807CF5F89
:100FC000DF4F21F081E080932B0302C010922B03AE
:100FD000DF91CF91089581E080934A0381E090E012
:100FE0000E94CE0708951F93182F8EE80E94C8070D
:100FF000812F0E94C8070E9484061F910895EF92D6
:10100000FF920F931F937C010E945A1F2091C703E8
:101010003091C8034091C9035091CA03621B730BFE
:10102000840B950B0027F7FC0095102FE616F706AA
:1010300008071907B8F40E945A1F6093C7037093FA
:10104000C8038093C9039093CA0383E10E94F30706
:101050002091D3033091D403280F391F3093D40348
:101060002093D3031F910F91FF90EF90089585E196
:101070000E94F3078093FE0287E10E94F30790939A
:101080000203809301038AE10E94F307909308030F
:101090008093070382E20E94F3078093160383E2A2
:1010A0000E94F3078093170308958DE00E94F307D1
:1010B0008093F60281E10E94F3078093F80282E1B7
:1010C0000E94F3078093F90286E10E94F307909350
:1010D00000038093FF0288E10E94F30790930403CA
:1010E0008093030389E10E94F307909306038093A2
:1010F0000503089587E00E94F3078093F00288E0DB
:101100000E94F3078093F1028BE10E94F307909312
:101110000A03809309038CE10E94F30790930C0368
:1011200080930B038DE10E94F30790930E0380934D
:101130000D038EE10E94F3079093100380930F0339
:101140008FE10E94F3079093120380931103089597
:1011500083E20E94F3078093170308950F931F9370
:10116000CF93DF938C0188E90E94C8078DE00E942D
:10117000C80789E80E94C807809127039091280337
:1011800017FF05C0CC27DD27C81BD90B01C0EC0118
:101190008D2F992787FD9A950E94C8078C2F0E9452
:1011A000C80780E00E94C80780E00E94C8078DE958
:1011B0000E94C807812F992787FD9A950E94C8072A
:1011C000802F0E94C80789E80E94C80780E00E941B
:1011D000C80780E00E94C80780E00E94C80780E03E
:1011E0000E94C80764E670E080E090E00E94681FFB
:1011F00089E90E94C8078091290390912A03800FF2
:10120000911F90932A038093290321E08936920746
:101210001CF08856914004C097FF06C088599E4F25
:1012200090932A0380932903DF91CF911F910F910F
:101230000895CF92DF92EF92FF920F931F93DF9367
:10124000CF93CDB7DEB727970FB6F894DEBF0FBEAA
:10125000CDBF0E9418036C01E0919002F0919102C1
:10126000CF0162E070E00E943C2B9B012C0D3D1DE4
:101270002E173F0714F02E1B3F0B88E691E0BF01AD
:101280000E943C2B269F7001279FF00C369FF00C8C
:1012900011242DEF3FEFE20EF31E35EBE316F104C0
:1012A00034F088E691E0AC014E195F097A018E01B5
:1012B0000F5F1F4FC80160E871E00E941526C7014B
:1012C000B80140E050E00E94DB02C8010E94D8262D
:1012D000C7010E94AE08C70168E671E00E943C2B7E
:1012E000CB0128EE33E06091860270918702AC0159
:1012F000429FC001439F900D529F900D11240E9468
:101300003C2BCB01829FB001839F700D929F700D8B
:101310001124882777FD8095982F0E94681FC601A9
:1013200027960FB6F894DEBF0FBECDBFCF91DF91E9
:101330001F910F91FF90EF90DF90CF9008957093E1
:101340002803609327030E94AE0880918602909143
:101350008702909328038093270308952F923F924A
:101360004F925F926F927F928F929F92AF92BF92B5
:10137000CF92DF92EF92FF920F931F93DF93CF9361
:10138000CDB7DEB727970FB6F894DEBF0FBECDBF3F
:101390006C01809090029090910288E691E0B401F7
:1013A0000E943C2BCC0CDD1C2EED33E0C20ED31E74
:1013B000AA24BB243E010894611C711CBDEF4B2E76
:1013C000BFEF5B2E460E571EA8EE2A2EA3E03A2E44
:1013D0005EC0EE24FF2400E010E064E170E080E0F5
:1013E00090E00E94681F80E10E94FC1F33E0893E6C
:1013F000930718F00150104002C0E80EF91E0F5F6D
:101400001F4F0E3111054CF364E170E080E090E075
:101410000E94681FC7016EE170E00E943C2B162FEE
:10142000072FF60160837183C30166E671E00E94B5
:101430001526812F902FB30141E050E00E94DB027E
:10144000C3010E94D826C20164E670E00E949F0991
:1014500088EE93E0B4010E943C2BCB0164E670E07F
:101460000E943C2B9B01229DB001239D700D329D5B
:10147000700D1124882777FD8095982F0E94681F92
:101480000894A11CB11C82E090E0C80ED91EA814DB
:10149000B9040CF49ECF8091D503882331F088E005
:1014A00095E06FE871E00E94442427960FB6F89407
:1014B000DEBF0FBECDBFCF91DF911F910F91FF9087
:1014C000EF90DF90CF90BF90AF909F908F907F90E4
:1014D0006F905F904F903F902F90089588E90E9401
:1014E000C8078DE00E94C80781E90E94C8078FEFF6
:1014F0000E94C80788E30E94C8078FEF0E94C807B0
:1015000088E30E94C8078CE90E94C8078FEF0E94F9
:10151000C8078FEB0E94C80789E80E94C80780E0CF
:101520000E94C80780E00E94C80780E00E94C807A8
:1015300080E00E94C80764E670E080E090E00E94CE
:10154000681F89E90E94C80708951F93182F8DE826
:101550000E94C807812F0E94C8071F910895CF924B
:10156000DF92EF92FF921F93CF93DF93F82EE62E38
:10157000D72E142F413100F58CE80E94C8078F2D1B
:101580000E94C807812F0E94C8078E2D9D2D9C01A7
:10159000E901EE24FF24C12EDD240BC019818881CE
:1015A0000E94C807812F0E94C8070894E11CF11C03
:1015B0002296EC14FD0494F3DF91CF911F91FF90DC
:1015C000EF90DF90CF900895DF93CF93CDB7DEB744
:1015D0002A970FB6F894DEBF0FBECDBF9C01225EE6
:1015E0003F4F220F331F29832FE02A83880F991F33
:1015F0008F5B8B838AE08C8383E0BE016F5F7F4FBC
:1016000042E00E94AF0A64E670E080E090E00E9451
:10161000681F83E00E94A50A2A960FB6F894DEBFE1
:101620000FBECDBFCF91DF910895DF93CF93CDB79C
:10163000DEB72A970FB6F894DEBF0FBECDBF282FB6
:10164000220F255D29833AE03A83245F2B833C8374
:101650004F96880F991F8D833E83245F2F83388791
:1016600084E0BE016F5F7F4F44E00E94AF0A64E6F2
:1016700070E080E090E00E94681F84E00E94A50A6C
:101680002A960FB6F894DEBF0FBECDBFCF91DF9183
:1016900008958F929F92AF92BF92CF92DF92EF9276
:1016A000FF920F931F93DF93CF93CDB7DEB765976C
:1016B0000FB6F894DEBF0FBECDBF4C0100E010E0C6
:1016C0007E010894E11CF11C78E0A72EB12CAC0E31
:1016D000BD1E6FE0C62ED12CCC0EDD1E8DE290E03B
:1016E0000E94AE0864EF71E080E090E00E94681F05
:1016F000C70164EA71E00E941526C5016DE270E041
:101700004AE00E944826C701B5010E94BE25C501D6
:101710000E94D826C601B7010E94C226C6010E94B7
:101720005905C6010E94D826C4010E94150B68EE17
:1017300073E080E090E00E94681FC7010E94D826F5
:101740000F5F1F4F0830110549F665960FB6F894E4
:10175000DEBF0FBECDBFCF91DF911F910F91FF90E4
:10176000EF90DF90CF90BF90AF909F908F900895B3
:1017700083E90E94C807809126030E94C807089544
:10178000382F833010F520912603662369F081E01D
:1017900090E0A0E0B0E004C0880F991FAA1FBB1F13
:1017A0003A95D2F7282B0DC081E090E0A0E0B0E0A0
:1017B00004C0880F991FAA1FBB1F3A95D2F78095C6
:1017C0002823209326030E94B80B0895EF92FF92DE
:1017D0000F931F938C017B0181E90E94C807812F21
:1017E000992787FD9A950E94C807802F0E94C807F5
:1017F0008F2D992787FD9A950E94C8078E2D0E94EC
:10180000C8071F910F91FF90EF9008958091D10329
:101810009091D2031816190644F460918E027091CB
:101820008F02CB010E94E60B0895892B51F0609145
:101830008E0270918F02709561957F4FCB010E944F
:10184000E60B0895AF92BF92CF92DF92EF92FF9294
:101850000F931F935B016C0179018A010E94CB29D0
:101860009B0177FF03C0309521953F4FB901882731
:1018700077FD8095982F0E94FE29A80197010E946C
:10188000632920E030E04AE754E40E94AE2A0E9437
:10189000D02960936B0370936C0380936D039093D6
:1018A0006E03C601B50120E030E040E050E00E9448
:1018B0005F29882324F4C801B701905802C0C801E9
:1018C000B7010E94CB299B01AC01CB01B9010E9459
:1018D000E60B0E945A1F609367037093680380931E
:1018E000690390936A031F910F91FF90EF90DF902F
:1018F000CF90BF90AF9008956F927F928F929F92FA
:10190000AF92BF92CF92DF92EF92FF920F931F930D
:101910005B016C0139014A010E94CB299B0177FFD1
:1019200003C0309521953F4FB901882777FD8095F9
:10193000982F0E94FE2920E030E044EB53E40E94FF
:10194000632920E030EC4DE454E40E94AE2AA40167
:1019500093010E94632920E030E04AE754E40E94AA
:10196000AE2A0E94D02960936B0370936C0380931E
:101970006D0390936E03C601B50120E030E040E0B6
:1019800050E00E945F2964015301D7FAD094D7F840
:10199000D09488234CF4C401B3010E94CB297B016D
:1019A0008C01C601B50108C0C601B5010E94CB2952
:1019B0007B018C01C401B3010E94CB299B01AC01C6
:1019C000C701B9010E94E60B0E945A1F609367038A
:1019D000709368038093690390936A031F910F913A
:1019E000FF90EF90DF90CF90BF90AF909F908F903F
:1019F0007F906F900895EF92FF920F931F938C0149
:101A00007B0189E80E94C807812F992787FD9A9555
:101A10000E94C807802F0E94C8078F2D992787FD35
:101A20009A950E94C8078E2D0E94C8071F910F919A
:101A3000FF90EF9008950F931F93CF93DF938C0146
:101A400087E00E94F307EC0188E00E94F30710167C
:101A50001106A4F42197239728F48CE291E061E029
:101A600070E010C0019729F48CE291E066E970E023
:101A700009C08AEF90E062E67DEF04C080E090E06C
:101A800060E070E00E94FB0CDF91CF911F910F91FD
:101A900008956F927F928F929F92AF92BF92CF9252
:101AA000DF92EF92FF920F931F935B016C0139015C
:101AB0004A010E94CB299B0177FF03C030952195F5
:101AC0003F4FB901882777FD8095982F0E94FE2906
:101AD000A80197010E94632920E030E04AE754E41E
:101AE0000E94AE2A0E94D02960936B0370936C030E
:101AF00080936D0390936E03C601B50120E030E042
:101B000040E050E00E945F29882324F4C801B70117
:101B1000905802C0C801B7010E94CB297B018C01FB
:101B2000C401B3010E94CB299B01AC01C701B901DB
:101B30000E94FB0C0E945A1F609367037093680316
:101B40008093690390936A031F910F91FF90EF9028
:101B5000DF90CF90BF90AF909F908F907F906F90CD
:101B6000089580E090E060E070E00E94FB0C089532
:101B70000E94B10D1092C5021092C4021092D203BD
:101B80001092D1031092D4031092D30380E090E01E
:101B9000A0E0B0E08093CD039093CE03A093CF0359
:101BA000B093D0031092CC031092CB0308959C0104
:101BB0008091D3039091D403892B69F43093D2039D
:101BC0002093D1031092D4031092D30383E10E9497
:101BD000F3070E94060C86E990E00E94FF0720911F
:101BE000D3033091D40337FF03C0309521953F4F85
:101BF0008091D1039091D20397FF03C09095819576
:101C00009F4F2817390714F480E008950E94B10D02
:101C10001092D2031092D1031092D4031092D303E6
:101C200081E00895CF93DF93EC018091F002815021
:101C3000833010F51092C5021092C4020E946E0A01
:101C400081E0809398028091990290919A02019686
:101C500090939A02809399028091D503882331F062
:101C600088E095E06BEA71E00E94442464EF71E043
:101C700080E090E00E94681F8091F002843081F43F
:101C80001092C5021092C4020E94B80D8091D50333
:101C9000882331F088E095E065EB71E00E944424F0
:101CA0008091C4029091C50218161906D4F4CE0191
:101CB0000E94D70D8823B9F01092C5021092C40279
:101CC0001092980210929A02109299028091D50374
:101CD000882349F088E095E067EC71E00E94442495
:101CE00002C00E94B80DDF91CF9108950F931F930A
:101CF0008091DA039091DB0397FFCBC08091D603EC
:101D00009091D703892B09F057C088E095E00E9495
:101D10004E2380919802882319F088E090E002C059
:101D200083E090E0909391028093900280E090E0B5
:101D30000E94AE0980E090E00E941909809196020D
:101D4000909197024AE959E969E97EE30E94760495
:101D50009093D7038093D6036AE070E080E090E030
:101D60000E94E72466307105810591054CF0809151
:101D70009802882329F44AE959E969E17FE304C01C
:101D80004DEC5CEC6CE47EE388E691E00AE919E94D
:101D900029E93EE30E94F0039093D9038093D8038E
:101DA00081E090E09093C5028093C40262E370E00A
:101DB00080E090E00E94681F8091C4029091C5026B
:101DC000892B31F56091D6037091D7036150704033
:101DD0007093D7036093D6038091DC039091DD0369
:101DE00001979093DD038093DC038091D5038823D2
:101DF00061F088E095E04AE050E00E942E2488E0FF
:101E000095E06AED71E00E9441240E947A0826C0A4
:101E10008091990290919A022091D8033091D90330
:101E20000397CCF0C9010E941B0D8091D8039091BB
:101E3000D90301979093D9038093D803892B71F428
:101E40001092C5021092C40281E090E090939A0231
:101E50008093990203C0C9010E94120E8091DC0395
:101E60009091DD03892BB9F58091D503882331F05A
:101E700088E095E06CED71E00E944124809192022F
:101E8000909193024AE959E969E17FE30E9476045F
:101E90001EC0009711F001971AC08091D5038823C6
:101EA00031F088E095E06AEE71E00E944124809173
:101EB0009402909195024AE959E969E17FE30E9411
:101EC00076049093DD038093DC038FEF9FEF909374
:101ED000DB038093DA031F910F9108958BE80E9432
:101EE000C807809123030E94C807809124030E94A1
:101EF000C807809125030E94C80708950F931F9378
:101F0000DF93CF93CDB7DEB76C970FB6F894DEBFF3
:101F10000FBECDBF282F462F8E010F5F1F4FC80168
:101F2000622F20E00E945F1E8B819C819093D702DC
:101F30008093D6028D819E81AF81B8858093D8022F
:101F40009093D902A093DA02B093DB0289859A8537
:101F5000AB85BC858093DC029093DD02A093DE020A
:101F6000B093DF028D858093E0028E858093E1023D
:101F70008F8598899093E3028093E2028989809308
:101F8000E4028A899B899093E6028093E5028C891A
:101F90009D899093E8028093E7028E899F899093B0
:101FA000EA028093E902888D998D9093EC028093E8
:101FB000EB028A8D9B8D9093EE028093ED029C8DB7
:101FC0008091EF028C7F292F22709170892B822BB8
:101FD0008093EF02C8010E94E61C84ED92E040E08D
:101FE00051EE60E070E00E94F41B6C960FB6F8941E
:101FF000DEBF0FBECDBFCF91DF911F910F9108952E
:10200000EF92FF920F931F938C017B0160EA7FE0B8
:1020100080E090E00E94681FC801B7010E947E0F17
:1020200080E80E94C80784E80E94C8071092230332
:10203000109224038FEF809325030E946E0F1F914F
:102040000F91FF90EF9008956F927F928F929F92E1
:10205000AF92BF92CF92DF92EF92FF920F931F93B6
:10206000DF93CF93CDB7DEB72E970FB6F894DEBFD0
:102070000FBECDBF782E692E4A015B016E01089418
:10208000C11CD11CC60166E671E00E941526C5017F
:10209000B4010E94CB299B01AC017B01C601B901AF
:1020A0000E947D25C6016AED71E00E94AE250027E1
:1020B000F7FC0095102FC801B7010E94FE299B0173
:1020C000AC01C501B4010E94FA2820E030E048ECE0
:1020D00052E40E94AE2A0E94CB2977FF03C070957C
:1020E00061957F4F8E010F5F1F4FC8010E947D25B4
:1020F000F8E0EF2EF12CEC0EFD1EC701B8010E9496
:10210000CD26C70168E271E00E94D825BC01872D69
:10211000962D0E94C226C7010E94DE26C8010E9499
:10212000D826872D962D2E960FB6F894DEBF0FBEBB
:10213000CDBFCF91DF911F910F91FF90EF90DF9076
:10214000CF90BF90AF909F908F907F906F900895A9
:10215000EF92FF920F931F93DF93CF93CDB7DEB72C
:10216000A3970FB6F894DEBF0FBECDBF7E010894D3
:10217000E11CF11CC70166E671E00E941526C7014B
:1021800063E473E00E94BE25C70168E271E00E942B
:10219000AE258E01085F1F4F40913B0350913C03D9
:1021A00060913D0370913E03C8010E942410C70155
:1021B000B8010E94BE25C8010E94D8268E01015F89
:1021C0001F4F40913F035091400360914103709134
:1021D0004203C8010E942410C701B8010E94BE2515
:1021E000C8010E94D8268E010A5E1F4F40913B0312
:1021F00050913C0360913D0370913E03C8010E94E1
:102200002410C701B8010E94BE25C8010E94D8262B
:102210008E01035E1F4F40913F0350914003609138
:10222000410370914203C8010E942410C701B80104
:102230000E94BE25C8010E94D82688E095E0B7011B
:102240000E948A24C7010E94D826A3960FB6F8944C
:10225000DEBF0FBECDBFCF91DF911F910F91FF90D9
:10226000EF900895CF92DF92EF92FF920F931F931A
:10227000DF93CF93CDB7DEB72E970FB6F894DEBFBE
:102280000FBECDBFD82EC92E7E010894E11CF11CD3
:10229000C7014AE00E9448268E01085F1F4FC8010F
:1022A000B7010E94CD26C80168E271E00E94D825DE
:1022B000BC018D2D9C2D0E94C226C8010E94DE26E5
:1022C000C7010E94D8268D2D9C2D2E960FB6F8940E
:1022D000DEBF0FBECDBFCF91DF911F910F91FF9059
:1022E000EF90DF90CF900895CF92DF92EF92FF9220
:1022F0000F931F93DF93CF93CDB7DEB72E970FB613
:10230000F894DEBF0FBECDBFD82EC92E7E01089433
:10231000E11CF11CC7014AE00E9448268E01085FBB
:102320001F4FC801B7010E94CD26C80168E271E0C5
:102330000E94D825BC018D2D9C2D0E94C226C8016B
:102340000E94DE26C7010E94D8268D2D9C2D2E9638
:102350000FB6F894DEBF0FBECDBFCF91DF911F91B6
:102360000F91FF90EF90DF90CF900895EF92FF9242
:102370000F931F93DF93CF93CDB7DEB7AA970FB616
:10238000F894DEBF0FBECDBF7E010894E11CF11CA6
:10239000C70166E671E00E941526C70160E673E09A
:1023A0000E94BE25C70168E271E00E94AE258E0141
:1023B000085F1F4F6091FE02C80170E00E94741117
:1023C000C701B8010E94BE25C8010E94D8268E010F
:1023D000015F1F4F6091010370910203C8010E94C9
:1023E0007411C701B8010E94BE25C8010E94D826F9
:1023F0008E010A5E1F4F6091070370910803C801A8
:102400000E947411C701B8010E94BE25C8010E9434
:10241000D8268E01035E1F4F60911603C80170E03D
:102420000E947411C701B8010E94BE25C8010E9414
:10243000D8268E010C5D1F4F60911703C80170E014
:102440000E947411C701B8010E94BE25C8010E94F4
:10245000D82688E095E0B7010E948A24C7010E942F
:10246000D826AA960FB6F894DEBF0FBECDBFCF9187
:10247000DF911F910F91FF90EF9008950E94370810
:102480000E94B6110895EF92FF920F931F93DF936E
:10249000CF93CDB7DEB765970FB6F894DEBF0FBE0A
:1024A000CDBF83E10E94F3079093FB028093FA0271
:1024B00084E10E94F3079093FD028093FC027E0169
:1024C0000894E11CF11CC70166E671E00E94152624
:1024D000C70169E573E00E94BE25C70168E271E0AB
:1024E0000E94AE258E01085F1F4F6091FA02709125
:1024F000FB02C8010E947411C701B8010E94BE25E9
:10250000C8010E94D8268E01015F1F4F6091FC0216
:102510007091FD02C8010E947411C701B8010E94A8
:10252000BE25C8010E94D82688E095E0B7010E9428
:102530008A24C7010E94D82665960FB6F894DEBF9C
:102540000FBECDBFCF91DF911F910F91FF90EF9004
:102550000895EF92FF920F931F93DF93CF93CDB720
:10256000DEB7A3970FB6F894DEBF0FBECDBF7E01D6
:102570000894E11CF11CC70166E671E00E94152673
:10258000C70164E373E00E94BE25C70168E271E001
:102590000E94AE258E01085F1F4F60912C03709141
:1025A0002D03C8010E947411C701B8010E94BE2505
:1025B000C8010E94D8268E01015F1F4F60912E0333
:1025C00070912F03C8010E947411C701B8010E94C5
:1025D000BE25C8010E94D8268E010A5E1F4F609159
:1025E000300370913103C8010E947411C701B80112
:1025F0000E94BE25C8010E94D8268E01035E1F4F8F
:102600006091320370913303C8010E947411C701B5
:10261000B8010E94BE25C8010E94D82688E095E036
:10262000B7010E948A24C7010E94D826A3960FB63C
:10263000F894DEBF0FBECDBFCF91DF911F910F91F8
:10264000FF90EF900895AF92BF92CF92DF92EF92FA
:10265000FF920F931F93DF93CF93CDB7DEB72E97E3
:102660000FB6F894DEBF0FBECDBF6C015B017E01DB
:102670000894E11CF11CC70166E671E00E94152672
:10268000C70166EC72E00E94BE2508E211E0C701B6
:10269000B8010E94AE25C701B6010E94BE25C70140
:1026A000B8010E94AE258E01085F1F4FC801B50119
:1026B0000E947411C701B8010E94BE25C8010E9482
:1026C000D82688E095E0B7010E948A24C7010E94BD
:1026D000D8262E960FB6F894DEBF0FBECDBFCF9191
:1026E000DF911F910F91FF90EF90DF90CF90BF90FF
:1026F000AF900895CF92DF92EF92FF920F931F93C6
:10270000DF93CF93CDB7DEB72E970FB6F894DEBF29
:102710000FBECDBFD82EC92E7E010894E11CF11C3E
:10272000C7014AE00E9479268E01085F1F4FC80149
:10273000B7010E94CD26C80168E271E00E94D82549
:10274000BC018D2D9C2D0E94C226C8010E94DE2650
:10275000C7010E94D8268D2D9C2D2E960FB6F89479
:10276000DEBF0FBECDBFCF91DF911F910F91FF90C4
:10277000EF90DF90CF900895EF92FF920F931F9309
:10278000DF93CF93CDB7DEB7E1970FB6F894DEBFF6
:102790000FBECDBF7E010894E11CF11CC70166E6A7
:1027A00071E00E941526C70162E573E00E94BE2514
:1027B000C70168E271E00E94AE258E01085F1F4FDD
:1027C000C8016091F6020E947A13C701B8010E9405
:1027D000BE25C8010E94D8268E01015F1F4FC80187
:1027E0006091F8020E947A13C701B8010E94BE25C9
:1027F000C8010E94D8268E010A5E1F4FC801609151
:10280000F9020E947A13C701B8010E94BE25C801CF
:102810000E94D8268E01035E1F4F609105037091C0
:102820000603C8010E943211C701B8010E94BE25EB
:10283000C8010E94D8268E010C5D1F4F60910303D2
:1028400070910403C8010E947411C701B8010E946D
:10285000BE25C8010E94D8268E01055D1F4F6091DC
:10286000FF0270910003C8010E943211C701B80134
:102870000E94BE25C8010E94D82688E095E0B701D5
:102880000E948A24C7010E94D826E1960FB6F894C8
:10289000DEBF0FBECDBFCF91DF911F910F91FF9093
:1028A000EF900895EF92FF920F931F93DF93CF93D2
:1028B000CDB7DEB7E1970FB6F894DEBF0FBECDBF40
:1028C0007E010894E11CF11CC70166E671E00E94DC
:1028D0001526C7016BE473E00E94BE25C70168E2BC
:1028E00071E00E94AE258E01085F1F4FC801609104
:1028F000F0020E947A13C701B8010E94BE25C801E8
:102900000E94D8268E01015F1F4F609109037091CC
:102910000A03C8010E943211C701B8010E94BE25F6
:10292000C8010E94D8268E010A5E1F4F60910B03DA
:1029300070910C03C8010E943211C701B8010E94B6
:10294000BE25C8010E94D8268E01035E1F4F6091EC
:102950000D0370910E03C8010E943211C701B80126
:102960000E94BE25C8010E94D8268E010C5D1F4F13
:1029700060910F0370911003C8010E943211C701CA
:10298000B8010E94BE25C8010E94D8268E01055DAF
:102990001F4F6091110370911203C8010E94321100
:1029A000C701B8010E94BE25C8010E94D82688E050
:1029B00095E0B7010E948A24C7010E94D826E196BB
:1029C0000FB6F894DEBF0FBECDBFCF91DF911F9140
:1029D0000F91FF90EF90089585E00E94B120892B20
:1029E00011F40E947A080E9452140E94DF050E948E
:1029F000A8100E9498020E94A9120895CF93DF9315
:102A00008091060490910704A0910804B0910904F4
:102A100080529E44A040B040B8F40E945A1F2091BA
:102A20000204309103044091040450910504621B98
:102A3000730B840B950B60930604709307048093CB
:102A400008049093090428C08EE190E00E94AE082B
:102A5000C0E0D0E065E070E080E090E00E94681F98
:102A60008091B203882311F00E94EC142196C233A6
:102A7000D10581F70E945A1F6093020470930304EA
:102A800080930404909305041092060410920704A6
:102A90001092080410920904DF91CF9108955F927B
:102AA0006F927F928F929F92AF92BF92CF92DF925E
:102AB000EF92FF920F931F935524539492C188E095
:102AC00095E00E94462280938C02843211F40E9489
:102AD000230580918C02803409F083C188E095E061
:102AE0000E94462280938D02992787FD9095A92FF9
:102AF000B92FFC01E156F040EA31F10508F071C14F
:102B0000E85AFF4FEE0FFF1F0590F491E02D099456
:102B100085EB93E069E070E04AE550E024EB30E0BB
:102B20000E94C81968EC70E080E090E00E94681F85
:102B30000E94EE04BC019093C2038093C10385EB15
:102B400093E00E94601960E971E080E090E00E94EB
:102B5000681F85EB93E00E94F4180E94EE049C012C
:102B600053E0880F991F5A95E1F7220F331F820F08
:102B7000931F9093BC038093BB030E94EE047C01DF
:102B80009093C0038093BF036091BB037091BC031B
:102B9000882777FD8095982F0E94FE295B016C01A4
:102BA0000027F7FC0095102FC801B7010E94FE29ED
:102BB0009B01AC01C601B5010E94220C12C10E940A
:102BC000EE049093BE038093BD030E94EE047C014B
:102BD0009093C0038093BF036091BD037091BE03C7
:102BE000882777FD8095982F0E94FE295B016C0154
:102BF0000027F7FC0095102FC801B7010E94FE299D
:102C00009B01AC01C601B5010E947C0CEAC00E9488
:102C1000EE049C0103E0880F991F0A95E1F7220F4B
:102C2000331F820F931F9093BC038093BB030E94BA
:102C3000EE049C01B3E0880F991FBA95E1F7220FCB
:102C4000331F820F931F9093C2038093C1030E948E
:102C5000EE047C019093C0038093BF036091BB039B
:102C60007091BC03882777FD8095982F0E94FE29DC
:102C70003B014C016091C1037091C203882777FD2D
:102C80008095982F0E94FE295B016C010027F7FCBC
:102C90000095102FC801B7010E94FE297B018C010D
:102CA000C401B301A60195010E94490D9AC080E0BC
:102CB00090E060E070E00E94E60B93C0E091C503F5
:102CC000F091C60309958DC00E94370880911703C3
:102CD0008150823030F484E80E94C8071092C40307
:102CE00080C083E80E94C8075092C4037AC08091D4
:102CF00017038150823020F484E80E94C80771C015
:102D000083E80E94C8070E94EB076BC080E090E058
:102D100002C08FEF9FEF0E94CE0763C00E94431254
:102D200060C08091B80385258093B8035AC0809114
:102D3000B90385258093B90354C08091C202909154
:102D4000C3020E94490B4DC08091C2029091C30200
:102D50000E94E40A46C00E947A080E94521441C0B0
:102D60000E9455080E94BC133CC00E9498020E9419
:102D7000A91237C00E94DF050E94A81032C08091BE
:102D8000B20385258093B2032CC08091B4038525BE
:102D90008093B40326C08091B30385258093B30349
:102DA00020C062E370E080E090E00E94681F01E0D4
:102DB00010E00E94EC148EE190E066E470E00E9466
:102DC0009F0960ED77E080E090E00E94681F0F5F50
:102DD0001F4F0D30110569F704C00E9437080E948B
:102DE000B61188E095E00E941522181619060CF419
:102DF00066CE1F910F91FF90EF90DF90CF90BF9024
:102E0000AF909F908F907F906F905F9008950F93F9
:102E10001F93DF93CF93CDB7DEB727970FB6F89404
:102E2000DEBF0FBECDBF80916B0390916C03A0916C
:102E30006D03B0916E030097A105B10509F44FC071
:102E40000E945A1F9B01AC01809167039091680317
:102E5000A0916903B0916A03281B390B4A0B5B0BE5
:102E600080916B0390916C03A0916D03B0916E0300
:102E700082179307A407B50790F08091F002815064
:102E8000833068F58091880290918902A0918A022E
:102E9000B0918B0282179307A407B50700F580E075
:102EA00090E060E070E00E94E60B8E010F5F1F4F24
:102EB000C80163E072E00E941526C8010E9459050E
:102EC000C8010E94D8260E9443120E9452141092F8
:102ED0006B0310926C0310926D0310926E03279691
:102EE0000FB6F894DEBF0FBECDBFCF91DF911F911B
:102EF0000F9108950F931F93DF93CF93CDB7DEB754
:102F0000A3970FB6F894DEBF0FBECDBF0E944F153A
:102F100080914A03882331F48091BA03882311F405
:102F20000E94071780916B0390916C03A0916D0331
:102F3000B0916E030097A105B105E1F48091B20351
:102F4000882311F00E94EC148091B903882311F0BA
:102F50000E94FE148091B803882311F00E94760E1F
:102F60008091B303882331F08091B403882311F05A
:102F70000E943E1282E10E94F3078093F90280FFD3
:102F80001CC068EC70E080E090E00E94681F80E860
:102F90000E94C80781E08093C4038E010F5F1F4F1A
:102FA000C80168E172E00E941526C80161E070E086
:102FB0000E942313C8010E94D826809116038150D5
:102FC0008230C0F48091C4038130A1F48093C303A4
:102FD0001092C4038E01085F1F4FC80165E272E0C2
:102FE0000E941526C80161E070E00E942313C80109
:102FF0000E94D82680911603882309F58091170333
:103000008130E9F48091C3038130C9F48091C40315
:103010008823A9F484E80E94C8071092C3038E0194
:10302000015F1F4FC8016EE372E00E941526C801C0
:1030300061E070E00E942313C8010E94D8260E941C
:1030400037080E94A80885E00E94B120892B49F426
:103050008091BA03882329F487E00E94F3078093C4
:10306000F0028091F00281508330D0F480910A0404
:1030700090910B04892BA1F481E090E090930B04D4
:1030800080930A048E010A5E1F4FC8016BE472E050
:103090000E941526C8010E945905C8010E94D82621
:1030A0008091F0028823C1F480910A0490910B046E
:1030B000019791F410920B0410920A048E01035EA2
:1030C0001F4FC8016EE572E00E941526C8010E94DC
:1030D0005905C8010E94D82664E170E080E090E0C4
:1030E0000E94681FA3960FB6F894DEBF0FBECDBF37
:1030F000CF91DF911F910F9108950F931F93DF934D
:10310000CF9300D0CDB7DEB702E314E0C80160E092
:1031100070E00E94051B8983C80161E070E00E9495
:10312000051B8A83CE0101960E947B019093C30206
:103130008093C2020F900F90CF91DF911F910F915A
:1031400008950F931F9308E015E0C80140E052EC8A
:1031500061E070E00E948E210E943C0687E090E0D2
:1031600064E070E00E940010C8016EE672E00E9408
:10317000442485E060E00E941E2082E060E00E941E
:10318000C00B0E947D1805EB13E0C80169E070E0F8
:103190004FEA50E024EB30E00E94C81968EC70E080
:1031A00080E090E00E94681FC8010E94F4181F91FF
:1031B0000F910895FC0180910C048C3090F4808371
:1031C0008F5F80930C04815090E0FC01EE0FFF1F95
:1031D000E80FF91FE35FFB4F88EB9BE0928381834D
:1031E00008958FEF80830895DC018C9190E0FC01BD
:1031F000EE0FFF1FE80FF91FE35FFB4F80818F7B0E
:1032000080838C916CE00E94302B90E0AC01440FE5
:10321000551F480F591F440F551F440F551F20E0DD
:1032200030E0C901840F951FFC01EE0FFF1FE80F6E
:10323000F91FE35FFB4F808186FD05C02F5F3F4F85
:103240002C30310571F70895FC0120812C30B8F540
:103250008181992787FD909548E850E0481B590BDC
:10326000440F551F440F551F6417750784F0828162
:10327000992787FD909548E552E0481B590B440F6C
:10328000551F440F551F641775070CF4AB014250CE
:103290005040CA01AA2797FDA095BA2F880F991F01
:1032A000AA1FBB1F4FB7F89430E0F901EE0FFF1FC4
:1032B000E20FF31FE35FFB4F928381834FBF0895BB
:1032C000AF92BF92CF92DF92EF92FF920F931F9334
:1032D000CF93DF93EC019B0182E0603278070CF022
:1032E00048C077FF03C020E030E005C0653B7105B2
:1032F00014F024EB30E000D000D0B901882777FD2E
:103300008095982F2981332727FD3095E8E8AE2E48
:10331000B12CA21AB30AAA0CBB1CAA0CBB1CCC244D
:10332000B7FCC094DC2CEA81FF27E7FDF09528E587
:1033300032E02E1B3F0B220F331F220F331F442777
:1033400037FD4095542FEDB7FEB721833283438379
:10335000548320E030E040E050E004EBE02EF12C1C
:10336000012D112D0E949E249B010F900F900F9014
:103370000F90CE01B9010E942419DF91CF911F91C6
:103380000F91FF90EF90DF90CF90BF90AF90089596
:10339000CF92DF92EF92FF921F93CF93DF93EC01D6
:1033A000162F7A01690188818C3008F064C0862F5D
:1033B00061E00E941E20888190E0FC01EE0FFF1F5B
:1033C000E80FF91FE35FFB4F1F738081807C812B27
:1033D000808380E292E08E199F0964E070E00E9491
:1033E0003C2B698380E699E08C199D0964E070E0CC
:1033F0000E943C2B6A83A8818A2F6CE00E94302BAC
:10340000682F70E0AB01440F551F460F571F440F44
:10341000551F440F551F20E030E0C901840F951F50
:10342000FC01EE0FFF1FE80FF91FE35FFB4F8081E8
:1034300086FD15C02F5F3F4F2C30310571F724C03A
:103440001092800082E0809381001092850010929B
:103450008400B19A80916F00826080936F008A2F00
:1034600090E0FC01EE0FFF1FE80FF91FE35FFB4F39
:103470008081806480838881DF91CF911F91FF904C
:10348000EF90DF90CF900895672BD1F2E8CF1F9295
:103490000F920FB60F9211242F933F934F935F9388
:1034A0006F937F938F939F93AF93BF93EF93FF930C
:1034B0008091310487FF05C010928500109284002E
:1034C0002BC020913104332727FD309580910C04C7
:1034D00090E02817390704F580913104992787FD7A
:1034E0009095FC01EE0FFF1FE80FF91FE35FFB4F04
:1034F000808186FF11C080913104992787FD9095C6
:10350000FC01EE0FFF1FE80FF91FE35FFB4F808107
:103510008F7360E00E945D20809131048F5F809303
:10352000310420913104332727FD309580910C041C
:1035300090E0281739070CF04EC0809131048C3090
:103540000CF049C0209184003091850080913104B5
:10355000992787FD9095FC01EE0FFF1FE80FF91FDB
:10356000E35FFB4F81819281280F391F30938900DF
:103570002093880080913104992787FD9095FC0164
:10358000EE0FFF1FE80FF91FE35FFB4F808186FFFF
:103590002BC080913104992787FD9095FC01EE0F97
:1035A000FF1FE80FF91FE35FFB4F80818F7361E01E
:1035B0000E945D2019C080E49CE905C080918400D0
:1035C00090918500049690938900809388008FEFF6
:1035D0008093310409C08091840090918500049605
:1035E00080549C4940F3EACFFF91EF91BF91AF9196
:1035F0009F918F917F916F915F914F913F912F910B
:103600000F900FBE0F901F901895F999FECF72BDC5
:1036100061BDF89A80B508950F931F93CF93DF9300
:10362000FC01738D76957170A685B7859585772396
:1036300029F08C91892309F454C004C08C9189230A
:1036400009F04FC08389948920E001972FEF8F3FC5
:103650009207D9F7C589D689A685B785158560E013
:1036600031E040E050E000E0CE01202F01972FEF45
:103670008F3F9207D9F78C91812311F0632B03C000
:10368000832F80956823330F4F5F5F4F483051057C
:1036900059F78789908D20E001972FEF8F3F920790
:1036A000D9F771116095809175042091760490E0AE
:1036B00001968F73907030E08217930779F0E09154
:1036C0007504F0E0EB5CFB4F60838091750490E043
:1036D00001968F7390708093750403C0838D816011
:1036E000838FDF91CF911F910F9108951F920F92B9
:1036F0000FB60F9211242F933F934F935F936F93C5
:103700007F938F939F93AF93BF93EF93FF9380919A
:10371000330490913404009711F00E940C1BFF9128
:10372000EF91BF91AF919F918F917F916F915F9139
:103730004F913F912F910F900FBE0F901F901895B2
:103740001F920F920FB60F9211242F933F934F9316
:103750005F936F937F938F939F93AF93BF93EF93F9
:10376000FF938091330490913404009711F00E94EC
:103770000C1BFF91EF91BF91AF919F918F917F9122
:103780006F915F914F913F912F910F900FBE0F90CE
:103790001F9018951F920F920FB60F9211242F931E
:1037A0003F934F935F936F937F938F939F93AF93C9
:1037B000BF93EF93FF93809133049091340400976B
:1037C00011F00E940C1BFF91EF91BF91AF919F915F
:1037D0008F917F916F915F914F913F912F910F90BA
:1037E0000FBE0F901F901895CF92DF92EF92FF922D
:1037F0000F931F93CF93DF93EC017A018B011A8E05
:10380000198E188E1F8A1E8A1D8A1C8A1B8A20E028
:1038100030E06901CC0CDD1CC20ED31EB601660F70
:10382000771F660F771FAB014C515F4FFA018591EF
:103830009591A591B4918E159F05A007B107E9F464
:10384000FB01E851FF4F859194919C8B8B8BFB0181
:10385000E651FF4F859194919E8B8D8BFB01E45136
:10386000FF4F85919491988F8F8BFB01E251FF4F11
:10387000859194919A8F898F06C02F5F3F4F2D308D
:10388000310509F0C6CF8F89988D892B09F449C07D
:103890004C85463108F03DC090916800483010F4E6
:1038A00084E005C04E3010F082E001C081E0892B39
:1038B00080936800483028F4EDE6F0E0ADE6B0E033
:1038C0000BC04E3028F0ECE6F0E0ACE6B0E004C00F
:1038D000EBE6F0E0ABE6B0E05081483040F481E048
:1038E00090E002C0880F991F4A95E2F710C0242F7C
:1038F00030E04E3018F42850304002C02E50304096
:1039000081E090E002C0880F991F2A95E2F7852B8D
:103910008C93898D9A8D20E001972FEF8F3F92072E
:10392000D9F780913304909134048C179D0781F06E
:103930008B8D8E7F8B8F9FB7F8941092750480913A
:10394000750480937604D0933404C09333049FBFEE
:10395000DF91CF911F910F91FF90EF90DF90CF906B
:103960000895FC014485463180F5483028F4EDE6A1
:10397000F0E0ADE6B0E00BC04E3028F4EBE6F0E04E
:10398000ABE6B0E004C0ECE6F0E0ACE6B0E05081BD
:10399000483040F481E090E002C0880F991F4A95BA
:1039A000E2F710C0242F30E04E3018F42850304099
:1039B00002C02E50304081E090E002C0880F991F75
:1039C0002A95E2F7809585238C930895FC0186EA79
:1039D00092E091838083CF010E94B11C08952091D1
:1039E0003304309134042817390731F49091760468
:1039F00080917504981719F42FEF3FEF0FC0E091F5
:103A00007604F0E0EB5CFB4F20818091760490E03F
:103A100001968F7390708093760430E0C901089509
:103A200020913304309134042817390719F020E02D
:103A300030E00EC0809175042091760490E0805CA7
:103A40009F4F821B910960E470E00E943C2B9C0117
:103A5000C90108950F931F93DC0159968D919C9194
:103A60005A97892B49F481E090E013969C938E93AA
:103A7000129720E030E097C00FB7F8945B968C91D6
:103A80005B975196ED91FC91529750962C915097DF
:103A900081FF8DC08081822B808359968D919C916E
:103AA0005A97059620E001972FEF8F3F9207D9F79D
:103AB0005B968C915B9781FF35C031E040E050E030
:103AC00070E010E0832F90E0862397235196ED91CC
:103AD000FC91529750962C915097892B29F0808118
:103AE00020952823208303C08081822B80835996D0
:103AF0008D919C915A97212F01972FEF8F3F92071D
:103B0000D9F7330F4F5F5F4F48305105D9F65196C3
:103B1000ED91FC915297908150968C9150978095A1
:103B2000892333C031E040E050E070E010E0832FA3
:103B300090E0862397235196ED91FC9152975096F1
:103B40002C915097892B21F08081822B808304C097
:103B5000808120952823208359968D919C915A9796
:103B6000212F01972FEF8F3F9207D9F7330F4F5F28
:103B70005F4F48305105D9F65196ED91FC9152971F
:103B8000808150969C915097892B80830FBF5996C6
:103B90008D919C915A9720E001972FEF8F3F9207CC
:103BA000D9F721E030E0C9011F910F91089580817C
:103BB00020952823208371CF209133043091340441
:103BC0002817390749F49FB7F8941092750480912B
:103BD0007504809376049FBF08952091330430913B
:103BE00034042817390731F49091760480917504D4
:103BF000981719F42FEF3FEF0AC0E0917604F0E038
:103C0000EB5CFB4F8081282F332727FD3095C901BE
:103C100008951F93CF93DF93EC01162F862F60E05A
:103C20000E941E208B8D81FD04C0812F61E00E94C7
:103C30005D201C87212F30E0C9018E549E4FFC016E
:103C400084918D8722563E4FF9016491E62FF0E072
:103C5000EE0FFF1FEC56FE4F859194919F878E8744
:103C6000DF91CF911F910895FF920F931F938C01C5
:103C7000F62E862F61E00E941E208F2D61E00E94AB
:103C80005D208F2D90E0FC01EE54FE4FE491D801B1
:103C90005096EC93509782569E4FFC016491E62F0C
:103CA000F0E0EE0FFF1FE657FE4F8591949152967C
:103CB0009C938E9351971F910F91FF900895FF92BF
:103CC0000F931F938C01F62EFC011382128288EE53
:103CD00093E0A0E0B0E084839583A683B78386EA6F
:103CE00092E091838083148A138A168A158A108E33
:103CF000178A128E118E838D2170220F8C7F822B5A
:103D0000838FC801642F0E94341EC8016F2D0E944A
:103D1000091E1F910F91FF9008951092B90088E934
:103D20008093B8000895982F84EA8093BC00809116
:103D3000BC0087FFFCCF8091B900887F883021F0DC
:103D4000803111F081E008959093BB0084E8809366
:103D5000BC008091BC0087FFFCCF9091B900987F98
:103D6000983111F480E0089580E0903409F081E00A
:103D70000895982F44EA34E824E94093BC008091E8
:103D8000BC0087FFFCCF8091B900887F883011F09C
:103D9000803199F79093BB003093BC008091BC00B8
:103DA00087FFFCCF8091B900887F803211F0883581
:103DB00039F42093BC008091BC0084FDFCCFDDCFA2
:103DC00008950E94931E089584E98093BC00809119
:103DD000BC0084FDFCCF08958093BB0084E88093F1
:103DE000BC008091BC0087FFFCCF8091B90090E0BF
:103DF000887F883209F091E0892F089584EC8093C0
:103E0000BC008091BC0087FFFCCF8091BB0008956F
:103E100084E88093BC008091BC0087FFFCCF809138
:103E2000BB0008951F920F920FB60F9211242F938B
:103E30003F938F939F93AF93BF9380917B04909117
:103E40007C04A0917D04B0917E0430917F040196A2
:103E5000A11DB11D232F2D5F2D3720F02D57019669
:103E6000A11DB11D20937F0480937B0490937C045B
:103E7000A0937D04B0937E048091770490917804A0
:103E8000A0917904B0917A040196A11DB11D80938F
:103E9000770490937804A0937904B0937A04BF9147
:103EA000AF919F918F913F912F910F900FBE0F90E7
:103EB0001F9018958FB7F89420917B0430917C0463
:103EC00040917D0450917E048FBFB901CA010895CD
:103ED0009B01AC017FB7F8948091770490917804AE
:103EE000A0917904B0917A0466B5A89B05C06F3F94
:103EF00019F00196A11DB11D7FBFBA2FA92F982FD0
:103F00008827860F911DA11DB11D62E0880F991FA2
:103F1000AA1FBB1F6A95D1F7BC012DC0FFB7F8944B
:103F20008091770490917804A0917904B0917A04FB
:103F3000E6B5A89B05C0EF3F19F00196A11DB11D84
:103F4000FFBFBA2FA92F982F88278E0F911DA11D73
:103F5000B11DE2E0880F991FAA1FBB1FEA95D1F798
:103F6000861B970B885E9340C8F22150304040403A
:103F7000504068517C4F211531054105510571F6BE
:103F80000895789484B5826084BD84B5816084BDD1
:103F900085B5826085BD85B5816085BDEEE6F0E0C2
:103FA000808181608083E1E8F0E01082808182601E
:103FB0008083808181608083E0E8F0E0808181609F
:103FC0008083E1EBF0E0808184608083E0EBF0E0CF
:103FD000808181608083EAE7F0E080818460808373
:103FE000808182608083808181608083808180681D
:103FF00080831092C1000895982F8E3008F09E5053
:10400000977080919B028295880F880F807C892B06
:1040100080937C0080917A00806480937A00809104
:104020007A0086FDFCCF2091780040917900942F92
:1040300080E030E0282B392BC9010895CF93DF931E
:10404000482F50E0CA018E549E4FFC0134914256D5
:104050005E4FFA018491882369F190E0880F991FDF
:10406000FC01E058FE4FA591B491FC01E657FE4FCC
:10407000C591D491662351F42FB7F8948C91932F66
:10408000909589238C93888189230BC0623061F4D9
:104090002FB7F8948C91932F909589238C938881D6
:1040A000832B88832FBF06C09FB7F8948C91832BF6
:1040B0008C939FBFDF91CF910895482F50E0CA01A4
:1040C0008A539E4FFC012491CA018E549E4FFC01DD
:1040D000949142565E4FFA013491332309F440C063
:1040E000222351F1233071F0243028F42130A1F043
:1040F000223011F514C02630B1F02730C1F0243041
:10410000D9F404C0809180008F7703C08091800033
:104110008F7D8093800010C084B58F7702C084B5F6
:104120008F7D84BD09C08091B0008F7703C08091DE
:10413000B0008F7D8093B000E32FF0E0EE0FFF1F03
:10414000E657FE4FA591B4912FB7F894662321F45A
:104150008C919095892302C08C91892B8C932FBFD1
:104160000895682F70E0CB018A539E4FFC01249183
:10417000CB018E549E4FFC01449162567E4FFB0151
:104180009491992319F420E030E03CC0222351F1AE
:10419000233071F0243028F42130A1F0223011F5C1
:1041A00014C02630B1F02730C1F02430D9F404C057
:1041B000809180008F7703C0809180008F7D8093F5
:1041C000800010C084B58F7702C084B58F7D84BD18
:1041D00009C08091B0008F7703C08091B0008F7DBF
:1041E0008093B000892F90E0880F991F8C569E4FC6
:1041F000FC01A591B4918C9120E030E0842311F072
:1042000021E030E0C901089508951F920F920FB682
:104210000F9211242F933F934F938F939F93EF937C
:10422000FF938091C00082FD1DC04091C600209187
:10423000C0043091C1042F5F3F4F2F7330708091C5
:10424000C2049091C3042817390771F0E091C004AB
:10425000F091C104E058FB4F40833093C104209398
:10426000C00402C08091C600FF91EF919F918F9191
:104270004F913F912F910F900FBE0F901F90189567
:10428000E0911405F0911505E05CFF4F819191914B
:1042900020813181821B930B8F739070892B11F0D9
:1042A0000E94042108951F920F920FB60F921124BD
:1042B0002F933F938F939F93EF93FF932091040548
:1042C000309105058091060590910705281739075B
:1042D00031F48091C1008F7D8093C10014C0E091C2
:1042E0000605F0910705EC53FB4F208180910605F0
:1042F0009091070501968F739070909307058093B6
:1043000006052093C600FF91EF919F918F913F91F9
:104310002F910F900FBE0F901F901895AF92BF92E4
:10432000DF92EF92FF920F931F93CF93DF93EC01F5
:104330007A018B01DD24403081EE580780E0680768
:1043400080E0780711F0DD24D39491E0A92EB12C00
:10435000EC89FD89DD2069F0C50108A002C0880F45
:10436000991F0A94E2F7808360E079E08DE390E0A2
:1043700005C0108260E874E88EE190E0A801970122
:104380000E944F2B21503040404050405695479559
:104390003795279580E12030380720F0DD2011F097
:1043A000DD24D6CFE889F9893083EA89FB89208327
:1043B00019A2EE89FF89408121E030E0C9010C8C0F
:1043C00002C0880F991F0A94E2F7482B4083EE89B8
:1043D000FF894081C9010D8C02C0880F991F0A9482
:1043E000E2F7482B4083EE89FF894081C9010E8C9A
:1043F00002C0880F991F0A94E2F7482B4083EE8988
:10440000FF8980810F8C02C0220F331F0A94E2F7CC
:10441000209528232083DF91CF911F910F91FF904A
:10442000EF90DF90BF90AF900895DC011C96ED9166
:10443000FC911D97E05CFF4F21913191808191812A
:10444000281B390B2F733070C9010895DC011C96AD
:10445000ED91FC911D97E05CFF4F20813181E0548C
:10446000F040DF01AE5BBF4F8D919C9111972817F3
:10447000390719F42FEF3FEF07C08D919C91E80F9A
:10448000F91F8081282F30E0C9010895DC011C96B6
:10449000ED91FC911D97E05CFF4F20813181E0544C
:1044A000F040DF01AE5BBF4F8D919C9111972817B3
:1044B000390719F42FEF3FEF10C08D919C911197A0
:1044C000E80FF91F20818D919C91119701968F73B0
:1044D000907011969C938E9330E0C9010895DC0191
:1044E00091968C919197882339F05496ED91FC9197
:1044F0005597808186FFF9CF91961C920895CF93AE
:10450000DF93EC01EE85FF85E05CFF4F2081318178
:10451000E054F0402F5F3F4F2F733070DF01AE5BF0
:10452000BF4F8D919C91119728173907D1F3E05C0B
:10453000FF4F80819181E054F040E80FF91F6083C4
:10454000EE85FF85E05CFF4F31832083EE89FF8994
:10455000208181E090E00F8C02C0880F991F0A949F
:10456000E2F7282B208381E089A3EC89FD898081F3
:104570008064808381E090E0DF91CF910895109274
:104580000B0510920A0588EE93E0A0E0B0E080935E
:104590000C0590930D05A0930E05B0930F0586EBC7
:1045A00092E0909309058093080580E894E0909349
:1045B00015058093140584EC94E09093170580937F
:1045C000160585EC90E0909319058093180584EC0E
:1045D00090E090931B0580931A0580EC90E09093F7
:1045E0001D0580931C0581EC90E090931F0580933E
:1045F0001E0582EC90E0909321058093200586ECC7
:1046000090E0909323058093220584E08093240515
:1046100083E08093250587E08093260585E08093DD
:10462000270581E0809328050895CF93DF930E94AA
:10463000C11F0E94A118C0E4D1E20E947A172097FE
:10464000E1F30E944021F9CFCF92DF92EF92FF92E7
:104650000F931F93CF93DF937C016B018A01C0E01E
:10466000D0E00FC0D6016D916D01D701ED91FC91A5
:104670000190F081E02DC7010995C80FD91F0150A5
:1046800010400115110571F7CE01DF91CF911F91F7
:104690000F91FF90EF90DF90CF900895EF92FF92EF
:1046A0000F931F938C01DC01ED91FC910190F0813F
:1046B000E02D6DE009957C01D801ED91FC91019010
:1046C000F081E02DC8016AE009959C012E0D3F1D87
:1046D000C9011F910F91FF90EF900895CF93DF9341
:1046E000EC016115710519F420E030E00FC0DB0129
:1046F0000D900020E9F71197A61BB70BE881F9810F
:104700000280F381E02DAD0109959C01C901DF9183
:10471000CF9108954F925F927F928F929F92AF9226
:10472000BF92CF92DF92EF92FF920F931F93DF938E
:10473000CF93CDB7DEB7A1970FB6F894DEBF0FBE0B
:10474000CDBF2C01742ECB01223008F42AE019A22F
:1047500031E2C32ED12CCC0EDD1E822E9924AA2448
:10476000BB24672D752FA50194010E944F2B790161
:104770008A01C801B701A50194010E94112B472DA0
:10478000461B0894C108D1084A3014F4405D01C0AA
:10479000495CF6014083E114F1040105110521F0A3
:1047A0007E2C5F2DC801DDCFC201B6010E946E23B1
:1047B000A1960FB6F894DEBF0FBECDBFCF91DF91AB
:1047C0001F910F91FF90EF90DF90CF90BF90AF902F
:1047D0009F908F907F905F904F900895CF92DF923F
:1047E000EF92FF920F931F93CF93DF93EC016A0137
:1047F0007B012115310541F4E881F9810190F081B7
:10480000E02D642F09951FC02A303105D1F477FFC0
:1048100017C0E881F9810190F081E02D6DE20995E2
:104820008C0144275527BA014C195D096E097F098F
:10483000CE012AE00E948A239801280F391F04C064
:104840002AE00E948A239C01C901DF91CF911F9128
:104850000F91FF90EF90DF90CF900895EF92FF922D
:104860000F931F937B019A010027F7FC0095102FEF
:10487000B801A7010E94EE231F910F91FF90EF90C6
:1048800008950E946E230895EF92FF920F931F9355
:104890007C010E946E238C01C7010E944E23080FE9
:1048A000191FC8011F910F91FF90EF900895AF92CB
:1048B000BF92CF92DF92EF92FF920F931F93CF930D
:1048C000DF935C016B01EE24FF24C0E0D0E010C058
:1048D000D501ED91FC9100811181C601BE010E94BC
:1048E0000925682FC501F8010995E80EF91E2196E2
:1048F000F60184819581C817D90750F3C701DF916C
:10490000CF911F910F91FF90EF90DF90CF90BF90CC
:10491000AF900895EF92FF920F931F937C010E9436
:1049200057248C01C7010E944E239C01200F311F88
:10493000C9011F910F91FF90EF9008952F923F9220
:104940004F925F926F927F928F929F92AF92BF929F
:10495000CF92DF92EF92FF920F931F93DF93CF934B
:10496000CDB7DEB73B014C0119012A016D897E8963
:104970008F89988D6A197B098C099D09621A730ABF
:10498000840A950AA40193010E94112BE218F308EE
:1049900004091509A80197010E94712B2A0D3B1DDE
:1049A0004C1D5D1DB901CA01CF91DF911F910F917F
:1049B000FF90EF90DF90CF90BF90AF909F908F903F
:1049C0007F906F905F904F903F902F900895EF925F
:1049D000FF920F931F937B018C0161157105810577
:1049E000910529F420E030E040E050E00BC00E9447
:1049F0006D01A80197010E94712BAC01CB01DA0176
:104A00009C01AD01B901CA011F910F91FF90EF9078
:104A10000895FC01848195816817790748F4019015
:104A2000F081E02D309721F0E60FF71F8081089587
:104A300080E008950F931F93CF93DF93EC018B01D8
:104A40006F5F7F4F888199810E941928009711F428
:104A500080E005C0998388831B830A8381E0DF910E
:104A6000CF911F910F910895CF93DF93EC0188812F
:104A70009981892B29F08A819B818617970760F499
:104A8000CE010E941A25882341F08C819D81892BBB
:104A900019F4E881F981108281E0DF91CF910895C6
:104AA000EF92FF920F931F93CF93DF93EC017B0163
:104AB0006C817D81E114F104C1F04115510599F03B
:104AC0008A01060F171FB8010E943425882369F058
:104AD000888199812C813D81820F931FB7010E94AB
:104AE000A2011D830C8381E001C080E0DF91CF91A2
:104AF0001F910F91FF90EF900895EF92FF920F9307
:104B00001F93DF93CF93CDB7DEB727970FB6F894F7
:104B1000DEBF0FBECDBF7C01CB018E010F5F1F4FEB
:104B2000B8014AE050E00E94A901F801019000207C
:104B3000E9F73197E01BF10BC701B801AF010E9403
:104B4000502527960FB6F894DEBF0FBECDBFCF918C
:104B5000DF911F910F91FF90EF90089561157105FE
:104B600011F480E00895DB010D900020E9F7119722
:104B7000A61BB70BAD010E9450250895FB01608173
:104B80007181448155810E9450250895CF93DF9310
:104B9000EC0188819981009711F00E948127198288
:104BA00018821D821C821B821A82DF91CF91089588
:104BB0000F931F93182F092F6115710561F0DB0109
:104BC0000D900020E9F71197A61BB70BAD010E94CD
:104BD0005025882321F4812F902F0E94C625812FF4
:104BE000902F1F910F910895EF92FF920F931F93B3
:104BF000CF93DF93EC017B018A01BA010E94342537
:104C0000882321F4CE010E94C62507C01D830C8392
:104C100088819981B7010E94A201CE01DF91CF91D5
:104C20001F910F91FF90EF900895CF93DF93EC01C8
:104C3000198218821B821A821D821C821E826115B3
:104C4000710551F0DB010D900020E9F71197A61BCB
:104C5000B70BAD010E94F425DF91CF9108950F931A
:104C60001F93182F092F6115710559F0DB010D9065
:104C70000020E9F71197A61BB70BAD010E94F425A0
:104C800002C00E94C625812F902F1F910F91089579
:104C9000EF92FF920F931F93DF93CF93CDB7DEB7C1
:104CA00062970FB6F894DEBF0FBECDBF8C01CB016B
:104CB000F8011182108213821282158214821682E8
:104CC0007E010894E11CF11CB70150E00E94A9018B
:104CD000C801B7010E942F2662960FB6F894DEBF76
:104CE0000FBECDBFCF91DF911F910F91FF90EF903D
:104CF0000895EF92FF920F931F93DF93CF93CDB759
:104D0000DEB729970FB6F894DEBF0FBECDBF8C017A
:104D1000862FF8011182108213821282158214826A
:104D2000168290E07E010894E11CF11CB70150E06E
:104D30000E94D201C801B7010E942F2629960FB602
:104D4000F894DEBF0FBECDBFCF91DF911F910F91C1
:104D5000FF90EF900895CF93DF93EC01FB0186174E
:104D6000970761F0608171816115710529F04481B7
:104D700055810E94F42502C00E94C625CE01DF9114
:104D8000CF910895FC011182108213821282158244
:104D9000148216820E94AB260895FC0111821082B3
:104DA000138212821582148216820E94AB26089505
:104DB000FC01808191810E9481270895FC018081FE
:104DC00091810E94812708950F931F93CF93DF93C2
:104DD000BC018230910510F462E070E0E0912C0596
:104DE000F0912D05A0E0B0E040E050E024C08081CB
:104DF000918186179707D0F08617970771F4828103
:104E00009381109729F013969C938E9312972CC040
:104E100090932D0580932C0527C04115510519F05D
:104E20008417950718F4EF018D01AC01DF01828131
:104E300093819C01F9013097D1F641155105F9F0A4
:104E4000CA01861B970B8430910580F48A819B816F
:104E50000115110521F0F8019383828304C090931A
:104E60002D0580932C05FE01329645C0FE01E80F0A
:104E7000F91F619371930297998388833CC0809155
:104E80002A0590912B05892B41F480919E029091E7
:104E90009F0290932B0580932A054091A002509188
:104EA000A1024115510541F44DB75EB780919C02B6
:104EB00090919D02481B590B20912A0530912B059A
:104EC00024173507B0F4CA01821B930B8617970786
:104ED00080F0AB014E5F5F4F8417950750F0420F93
:104EE000531F50932B0540932A05F9016193719349
:104EF00002C0E0E0F0E0CF01DF91CF911F910F9170
:104F00000895CF93DF939C01009709F48FC0EC01C3
:104F100022971B821A8260912C0570912D056115D4
:104F2000710581F488819981820F931F20912A0550
:104F300030912B052817390739F5D0932B05C093ED
:104F40002A0574C0DB0140E050E0AC17BD0708F152
:104F5000BB83AA83FE0121913191E20FF31FAE17AB
:104F6000BF0779F48D919C911197280F391F2E5FFF
:104F70003F4F3983288312968D919C9113979B8381
:104F80008A834115510571F4D0932D05C0932C05EA
:104F90004DC012968D919C911397AD01009711F021
:104FA000DC01D3CFDA011396DC93CE931297FA018A
:104FB00021913191E20FF31FCE17DF0769F4888149
:104FC0009981280F391F2E5F3F4FFA0131832083CB
:104FD0008A819B8193838283E0E0F0E0DB0112967B
:104FE0008D919C911397009719F0BC01FD01F6CFAC
:104FF000AB014E5F5F4FDB018D919C91840F951F3C
:1050000020912A0530912B052817390779F430971C
:1050100029F410922D0510922C0502C013821282E1
:105020004250504050932B0540932A05DF91CF9179
:1050300008956F927F928F929F92AF92BF92CF927C
:10504000DF92EF92FF920F931F93CF93DF938C0128
:10505000009729F4CB010E94E4268C01BBC08EEF9F
:10506000E82E8FEFF82EE00EF11E4801860E971EF7
:105070008E149F0408F4ACC0D7014D915C91119738
:1050800046175707B8F04530510508F4A3C0CA01C8
:1050900004978617970708F49DC042505040461B5E
:1050A000570BF401419351936D937C93CF010E9470
:1050B000812790C05B01A41AB50A3801640E751EE1
:1050C000A0912C05B0912D05CC24DD24E0E0F0E08A
:1050D00047C0A615B705A9F5CD91DC911197CE0172
:1050E00002968A159B0568F1CE018A199B090296E2
:1050F00012962C91129713963C91059758F0F40153
:1051000022833383CA19DB09D183C083D7016D930E
:105110007C9309C04E5F5F4F4C0F5D1FF7015183B9
:105120004083C901FC01C114D10431F0D6011396AA
:10513000FC93EE9312974EC0F0932D05E0932C054F
:1051400049C08D919C911197E817F90708F4FC016B
:105150006D0112968C91129713969C919C01D90126
:10516000109709F0B6CF80912A0590912B058615EE
:105170009705E9F4E617F707D0F42091A0023091E3
:10518000A1022115310541F42DB73EB780919C0253
:1051900090919D02281B390B82169306C8F49092B9
:1051A0002B0580922A05F7017183608313C0CB0120
:1051B0000E94E426EC01009759F0D7014D915C91D3
:1051C000B8010E949901C8010E9481278E0102C086
:1051D00000E010E0C801DF91CF911F910F91FF9087
:1051E000EF90DF90CF90BF90AF909F908F907F9087
:1051F0006F9008955058BB27AA270ED075C166D16D
:1052000030F06BD120F031F49F3F11F41EF45BC1FC
:105210000EF4E095E7FB51C1E92F77D180F3BA177F
:10522000620773078407950718F071F49EF58FC124
:105230000EF4E0950B2EBA2FA02D0B01B9019001B1
:105240000C01CA01A0011124FF27591B99F0593FF5
:1052500050F4503E68F11A16F040A22F232F342F3D
:105260004427585FF3CF469537952795A795F0408B
:105270005395C9F77EF41F16BA0B620B730B840BA0
:10528000BAF09150A1F0FF0FBB1F661F771F881F58
:10529000C2F70EC0BA0F621F731F841F48F48795B0
:1052A00077956795B795F7959E3F08F0B3CF93959F
:1052B000880F08F09927EE0F979587950895D9D014
:1052C00008F481E008950CD00FC107D140F0FED062
:1052D00030F021F45F3F19F0F0C0511139C1F3C033
:1052E00014D198F39923C9F35523B1F3951B550BAA
:1052F000BB27AA2762177307840738F09F5F5F4FA9
:10530000220F331F441FAA1FA9F333D00E2E3AF0E9
:10531000E0E830D091505040E695001CCAF729D003
:10532000FE2F27D0660F771F881FBB1F2617370752
:105330004807AB07B0E809F0BB0B802DBF01FF2782
:1053400093585F4F2AF09E3F510568F0B6C000C1E8
:105350005F3FECF3983EDCF3869577956795B795BC
:10536000F7959F5FC9F7880F911D9695879597F9D7
:105370000895E1E0660F771F881FBB1F6217730750
:105380008407BA0720F0621B730B840BBA0BEE1F65
:1053900088F7E095089504D06894B111D9C00895B4
:1053A000BCD088F09F5790F0B92F9927B751A0F043
:1053B000D1F0660F771F881F991F1AF0BA95C9F7A9
:1053C00012C0B13081F0C3D0B1E00895C0C0672FE2
:1053D000782F8827B85F39F0B93FCCF38695779559
:1053E0006795B395D9F73EF4909580957095619542
:1053F0007F4F8F4F9F4F0895E89409C097FB3EF46D
:1054000090958095709561957F4F8F4F9F4F992311
:10541000A9F0F92F96E9BB279395F695879577958F
:105420006795B795F111F8CFFAF4BB0F11F460FF4F
:105430001BC06F5F7F4F8F4F9F4F16C0882311F0A7
:1054400096E911C0772321F09EE8872F762F05C0BB
:10545000662371F096E8862F70E060E02AF09A9556
:10546000660F771F881FDAF7880F9695879597F94B
:105470000895990F0008550FAA0BE0E8FEEF1616E5
:105480001706E807F907C0F012161306E407F50738
:1054900098F0621B730B840B950B39F40A2661F0AC
:1054A000232B242B252B21F408950A2609F4A1404F
:1054B000A6958FEF811D811D089597F99F6780E85C
:1054C00070E060E008959FEF80EC089500240A9456
:1054D0001616170618060906089500240A941216CF
:1054E0001306140605060895092E0394000C11F402
:1054F000882352F0BB0F40F4BF2B11F460FF04C0AF
:105500006F5F7F4F8F4F9F4F089557FD9058440F07
:10551000551F59F05F3F71F04795880F97FB991F12
:1055200061F09F3F79F087950895121613061406CF
:10553000551FF2CF4695F1DF08C01616170618065C
:10554000991FF1CF86957105610508940895E89437
:10555000BB2766277727CB0197F908950BD0C4CFD7
:10556000B5DF28F0BADF18F0952309F0A6CFABCF4E
:105570001124EECFCADFA0F3959FD1F3950F50E031
:10558000551F629FF001729FBB27F00DB11D639FF5
:10559000AA27F00DB11DAA1F649F6627B00DA11D9B
:1055A000661F829F2227B00DA11D621F739FB00D41
:1055B000A11D621F839FA00D611D221F749F3327B1
:1055C000A00D611D231F849F600D211D822F762F4A
:1055D0006A2F11249F5750408AF0E1F088234AF047
:1055E000EE0FFF1FBB1F661F771F881F9150504093
:1055F000A9F79E3F510570F060CFAACF5F3FECF353
:10560000983EDCF3869577956795B795F795E7957E
:105610009F5FC1F7FE2B880F911D9695879597F98F
:105620000895629FD001739FF001829FE00DF11DEC
:10563000649FE00DF11D929FF00D839FF00D749F0C
:10564000F00D659FF00D9927729FB00DE11DF91FB8
:10565000639FB00DE11DF91FBD01CF011124089515
:10566000991B79E004C0991F961708F0961B881FB4
:105670007A95C9F78095089597FB092E07260AD0D9
:1056800077FD04D049D006D000201AF470956195BA
:105690007F4F0895F6F7909581959F4F0895A1E269
:1056A0001A2EAA1BBB1BFD010DC0AA1FBB1FEE1F9C
:1056B000FF1FA217B307E407F50720F0A21BB30BE7
:1056C000E40BF50B661F771F881F991F1A9469F763
:1056D00060957095809590959B01AC01BD01CF01BF
:1056E000089597FB092E05260ED057FD04D0D7DF6D
:1056F0000AD0001C38F450954095309521953F4FC5
:105700004F4F5F4F0895F6F790958095709561958E
:105710007F4F8F4F9F4F0895AA1BBB1B51E107C0BE
:10572000AA1FBB1FA617B70710F0A61BB70B881F31
:10573000991F5A95A9F780959095BC01CD010895C0
:10574000EE0FFF1F0590F491E02D09942F923F92E8
:105750004F925F926F927F928F929F92AF92BF9281
:10576000CF92DF92EF92FF920F931F93CF93DF932D
:10577000CDB7DEB7CA1BDB0B0FB6F894DEBF0FBE8A
:10578000CDBF09942A88398848885F846E847D84D7
:105790008C849B84AA84B984C884DF80EE80FD80D9
:1057A0000C811B81AA81B981CE0FD11D0FB6F8944F
:1057B000DEBF0FBECDBFED01089511E0CEEDD1E00B
:1057C00004C0FE010E94A22B2296C03ED107C9F759
:0457D000F894FFCF7B
:1057D400236D736700237374740023616E61002367
:1057E4006974630023636673002363737300236423
:1057F4006973002363686700200020202020006C68
:105804006F776573742076616C75653A00626573B1
:105814007420646972656374696F6E3A006E6577AB
:105824002064697374616E63653A006E6577206302
:1058340079636C653A000049324320696E69746982
:10584400616C697A6564000909006572726F72009F
:105854005475726E20616E676C652069733A00201E
:105864002D2D200062756D7020616E64206261636D
:105874006B7570007475726E3A2000436F6C6C69BE
:1058840073696F6E0020576865656C2061626F767E
:105894006520332E20200044697374616E63652093
:1058A40066696E69736865642E002E007265737490
:1058B4005F74696D6572202D20006D6F76655F746D
:1058C400696D6572202D200064697374616E63656F
:1058D4003A200074696D65645F6D6F76655F636F10
:1058E4006D706C657465640053414645204D4F44AA
:1058F40045204F4E004348415247494E4720534F9D
:105904005552434520444554454354454400465567
:105914004C4C204D4F4445204F4E00636F6C6C69D6
:1059240073696F6E20646574656374656400627581
:105934006D7065722072656C656173656400546195
:105944006C6B696E67207769746820437265617453
:10595400650001000000C800F40100006C6C6400E4
:105964000800780050000C000101000180002E05A1
:105974000000000000002A1D2423101DEF1CED1D53
:10598400DC1D000000007F2224231522462226224B
:025994006F2280
:00000001FF
