:100000000C9435000C945D000C945D000C945D0024
:100010000C945D000C945D000C945D000C945D00EC
:100020000C945D000C945D000C945D000C945D00DC
:100030000C945D000C945D000C945D000C945D00CC
:100040000C94AB010C945D000C9488020C94D602C5
:100050000C945D000C945D000C945D000C945D00AC
:100060000C945D000C945D00420411241FBECFEF80
:10007000D8E0DEBFCDBF11E0A0E0B1E0E8E6FCE0F3
:1000800002C005900D92AE39B107D9F712E0AEE982
:10009000B1E001C01D92A235B107E1F710E0CAE658
:1000A000D0E004C02297FE010E942E06C836D10778
:1000B000C9F70E9498040C9432060C940000FC01CD
:1000C00088279927E89421912032E9F3293010F00C
:1000D0002E30C8F32B3241F02D3239F4689404C02D
:1000E0000E947D00820F911D219120532A30C0F380
:1000F0001EF4909581959F4F08957AE0979F902DDB
:10010000879F802D910D11240895EF92FF920F93F8
:100110001F93DF93CF9300D0CDB7DEB77C0180E390
:1001200092E060E071E00E94D80500E010E00CC0B1
:100130008EE991E0B8010E949801682F80E392E077
:100140000E94D1040F5F1F4F0E151F058CF380E333
:1001500092E00E94D9048EE991E060E070E00E9494
:10016000980189838EE991E061E070E00E94980136
:100170008A838E010F5F1F4FC8010E945F00BC0180
:1001800080E392E04AE050E00E94B9058EE991E0F8
:1001900062E070E00E94980189838EE991E063E05B
:1001A00070E00E9498018A83C8010E945F00BC0130
:1001B00080E392E04AE050E00E94B9050F900F9072
:1001C000CF91DF911F910F91FF90EF900895EF92E3
:1001D000FF920F931F93CF93DF937C018B01C0E0BD
:1001E000D0E00AC0F801EC0FFD1F8EE991E0BE01DE
:1001F00040810E949F012196CE15DF059CF380E38C
:1002000092E06AE171E00E94D805DF91CF911F91E1
:100210000F91FF90EF9008958F929F92AF92BF92AF
:10022000CF92DF92EF92FF920F931F93DF93CF93C2
:10023000CDB7DEB76C01ADB6BEB60EB79DB68EB605
:1002400080E392E00E94C9039C014FEF8F3F940727
:10025000A1F1C6010197EDB7FEB7E81BF90B0FB688
:10026000F894FEBF0FBEEDBFEDB6FEB60894E11CDC
:10027000F11C218301E010E080E392E00E94C903B9
:10028000C016D10654F0F701E00FF11F80838F5F95
:100290009F4F19F00F5F1F4FEFCFF70180818C3216
:1002A00029F084E090E0B7010E94E70084E090E04C
:1002B0000E948500892D982D02C08A2D902F0FB69F
:1002C000F8949EBF0FBE8DBF0FB6F894BEBE0FBE92
:1002D000ADBECF91DF911F910F91FF90EF90DF9016
:1002E000CF90BF90AF909F908F90089562E370E0A1
:1002F00080E090E00E94F30183E090E00E940C0116
:1003000008950F931F9300E312E0C80140E051EEFF
:1003100060E070E00E94110384E090E00E9485009C
:10032000C8016EE271E00E94D8051F910F910895F7
:10033000F999FECF72BD61BDF89A80B50895F9991B
:10034000FECF1FBA72BD61BD40BD0FB6F894FA9AD8
:10035000F99A0FBE08951F920F920FB60F921124B3
:100360002F933F938F939F93AF93BF938091A3015C
:100370009091A401A091A501B091A6013091A7018F
:100380000196A11DB11D232F2D5F2D3720F02D5774
:100390000196A11DB11D2093A7018093A301909305
:1003A000A401A093A501B093A60180919F01909113
:1003B000A001A091A101B091A2010196A11DB11DC2
:1003C00080939F019093A001A093A101B093A201FB
:1003D000BF91AF919F918F913F912F910F900FBE41
:1003E0000F901F9018959B01AC017FB7F8948091F6
:1003F0009F019091A001A091A101B091A20166B5C9
:10040000A89B05C06F3F19F00196A11DB11D7FBFCC
:10041000BA2FA92F982F8827860F911DA11DB11DD6
:1004200062E0880F991FAA1FBB1F6A95D1F7BC0114
:100430002DC0FFB7F89480919F019091A001A091E9
:10044000A101B091A201E6B5A89B05C0EF3F19F04C
:100450000196A11DB11DFFBFBA2FA92F982F882784
:100460008E0F911DA11DB11DE2E0880F991FAA1FDB
:10047000BB1FEA95D1F7861B970B885E9340C8F2A5
:10048000215030404040504068517C4F211531058B
:100490004105510571F60895789484B5826084BD54
:1004A00084B5816084BD85B5826085BD85B5816078
:1004B00085BDEEE6F0E0808181608083E1E8F0E0D8
:1004C0001082808182608083808181608083E0E807
:1004D000F0E0808181608083E1EBF0E080818460E6
:1004E0008083E0EBF0E0808181608083EAE7F0E0E8
:1004F000808184608083808182608083808181604C
:1005000080838081806880831092C100089508955F
:100510001F920F920FB60F9211242F933F934F9378
:100520008F939F93EF93FF938091C00082FD1DC036
:100530004091C6002091E8013091E9012F5F3F4FC3
:100540002F7330708091EA019091EB0128173907E1
:1005500071F0E091E801F091E901E855FE4F408328
:100560003093E9012093E80102C08091C600FF9119
:10057000EF919F918F914F913F912F910F900FBECF
:100580000F901F901895E0913C02F0913D02E05CC5
:10059000FF4F8191919120813181821B930B8F7349
:1005A0009070892B11F00E94870208951F920F927C
:1005B0000FB60F9211242F933F938F939F93EF9336
:1005C000FF9320912C0230912D0280912E02909168
:1005D0002F022817390731F48091C1008F7D809355
:1005E000C10014C0E0912E02F0912F02E451FE4FA1
:1005F000208180912E0290912F0201968F7390702E
:1006000090932F0280932E022093C600FF91EF91CA
:100610009F918F913F912F910F900FBE0F901F9040
:100620001895AF92BF92DF92EF92FF920F931F93B4
:10063000CF93DF93EC017A018B01DD24403081EE12
:10064000580780E0680780E0780711F0DD24D39434
:1006500091E0A92EB12CEC89FD89DD2069F0C5015E
:1006600008A002C0880F991F0A94E2F7808360E017
:1006700079E08DE390E005C0108260E874E88EE1D7
:1006800090E0A80197010E940A06215030404040A6
:100690005040569547953795279580E1203038078B
:1006A00020F0DD2011F0DD24D6CFE889F9893083F0
:1006B000EA89FB89208319A2EE89FF89408121E024
:1006C00030E0C9010C8C02C0880F991F0A94E2F730
:1006D000482B4083EE89FF894081C9010D8C02C0FF
:1006E000880F991F0A94E2F7482B4083EE89FF890F
:1006F0004081C9010E8C02C0880F991F0A94E2F74D
:10070000482B4083EE89FF8980810F8C02C0220F25
:10071000331F0A94E2F7209528232083DF91CF919D
:100720001F910F91FF90EF90DF90BF90AF900895D1
:10073000DC011C96ED91FC911D97E05CFF4F21912F
:10074000319180819181281B390B2F733070C90141
:100750000895DC011C96ED91FC911D97E05CFF4F24
:1007600020813181E054F040DF01AE5BBF4F8D91BD
:100770009C9111972817390719F42FEF3FEF07C005
:100780008D919C91E80FF91F8081282F30E0C901DD
:100790000895DC011C96ED91FC911D97E05CFF4FE4
:1007A00020813181E054F040DF01AE5BBF4F8D917D
:1007B0009C9111972817390719F42FEF3FEF10C0BC
:1007C0008D919C911197E80FF91F20818D919C913B
:1007D000119701968F73907011969C938E9330E0D1
:1007E000C9010895DC0191968C919197882339F085
:1007F0005496ED91FC915597808186FFF9CF9196A3
:100800001C920895CF93DF93EC01EE85FF85E05CA9
:10081000FF4F20813181E054F0402F5F3F4F2F7315
:100820003070DF01AE5BBF4F8D919C9111972817FF
:100830003907D1F3E05CFF4F80819181E054F040B3
:10084000E80FF91F6083EE85FF85E05CFF4F318381
:100850002083EE89FF89208181E090E00F8C02C027
:10086000880F991F0A94E2F7282B208381E089A33F
:10087000EC89FD8980818064808381E090E0DF9154
:10088000CF910895109233021092320288EE93E0D5
:10089000A0E0B0E08093340290933502A09336023A
:1008A000B093370282E991E0909331028093300255
:1008B00088EA91E090933D0280933C028CEE91E0B7
:1008C00090933F0280933E0285EC90E0909341022A
:1008D0008093400284EC90E0909343028093420224
:1008E00080EC90E0909345028093440281EC90E08C
:1008F000909347028093460282EC90E090934902E5
:100900008093480286EC90E090934B0280934A02D9
:1009100084E080934C0283E080934D0287E08093D3
:100920004E0285E080934F0281E08093500208954B
:10093000CF93DF930E944C020E948101C3ECD2E06E
:100940000E9476012097E1F30E94C302F9CFCF9273
:10095000DF92EF92FF920F931F93CF93DF937C016F
:100960006B018A01C0E0D0E00FC0D6016D916D012E
:10097000D701ED91FC910190F081E02DC70109951F
:10098000C80FD91F015010400115110571F7CE0194
:10099000DF91CF911F910F91FF90EF90DF90CF905B
:1009A0000895DC01ED91FC910190F081E02D099515
:1009B0000895EF92FF920F931F938C01DC01ED914C
:1009C000FC910190F081E02D6DE009957C01D8014A
:1009D000ED91FC910190F081E02DC8016AE009954C
:1009E0009C012E0D3F1DC9011F910F91FF90EF90AB
:1009F0000895CF93DF93EC016115710519F420E0A0
:100A000030E00FC0DB010D900020E9F71197A61B25
:100A1000B70BE881F9810280F381E02DAD010995E2
:100A20009C01C901DF91CF9108954F925F927F920F
:100A30008F929F92AF92BF92CF92DF92EF92FF92EE
:100A40000F931F93DF93CF93CDB7DEB7A1970FB668
:100A5000F894DEBF0FBECDBF2C01742ECB01223027
:100A600008F42AE019A231E2C32ED12CCC0EDD1EEF
:100A7000822E9924AA24BB24672D752FA5019401E9
:100A80000E940A0679018A01C801B701A5019401F3
:100A90000E94EB05472D461B0894C108D1084A3037
:100AA00014F4405D01C0495CF6014083E114F10497
:100AB0000105110521F07E2C5F2DC801DDCFC2019B
:100AC000B6010E94F904A1960FB6F894DEBF0FBEDE
:100AD000CDBFCF91DF911F910F91FF90EF90DF90ED
:100AE000CF90BF90AF909F908F907F905F904F90EE
:100AF0000895CF92DF92EF92FF920F931F93CF93BF
:100B0000DF93EC016A017B012115310541F4E88195
:100B1000F9810190F081E02D642F09951FC02A30E2
:100B20003105D1F477FF17C0E881F9810190F08198
:100B3000E02D6DE209958C0144275527BA014C1927
:100B40005D096E097F09CE012AE00E941505980112
:100B5000280F391F04C02AE00E9415059C01C90115
:100B6000DF91CF911F910F91FF90EF90DF90CF9089
:100B70000895CF92DF92EF92FF920F931F936C0133
:100B80007B019A010027F7FC0095102FB801A701FF
:100B90000E9479058C01C6010E94D904080F191F13
:100BA000C8011F910F91FF90EF90DF90CF900895B3
:100BB000EF92FF920F931F937C010E94F9048C0126
:100BC000C7010E94D904080F191FC8011F910F9176
:100BD000FF90EF900895629FD001739FF001829F74
:100BE000E00DF11D649FE00DF11D929FF00D839FBC
:100BF000F00D749FF00D659FF00D9927729FB00D59
:100C0000E11DF91F639FB00DE11DF91FBD01CF016B
:100C100011240895A1E21A2EAA1BBB1BFD010DC0D1
:100C2000AA1FBB1FEE1FFF1FA217B307E407F5079C
:100C300020F0A21BB30BE40BF50B661F771F881F78
:100C4000991F1A9469F760957095809590959B010E
:100C5000AC01BD01CF010895EE0FFF1F0590F49187
:080C6000E02D0994F894FFCF88
:100C680043757272656E74206964206F6E20454505
:100C780050524F4D2069733A2000577269746520AD
:100C8800454550524F4D2066696E69736800506C37
:100C98006561736520696E70757420746865207469
:100CA800776F206279746573204B61746965206978
:100CB8006420616E642074776F2062797465732094
:100CC8006661766F72697465206E756D62657220F3
:100CD800666F722074686973204B61746965207748
:100CE8006974686F75742073706163653A000000F9
:0E0CF80000000204A7049803C903A903F20335
:00000001FF
